:020000040800F2
:1000000088040020A1010008E7110008451100083C
:10001000E5110008910200084518000800000000E2
:10002000000000000000000000000000B513000800
:10003000930200080000000009120008B71300082E
:10004000BB010008BB010008BB010008BB010008A0
:10005000BB010008BB010008BB010008BB01000890
:10006000BB010008BB010008BB010008BB01000880
:10007000BB010008BB010008BB010008BB01000870
:10008000BB010008BB010008BB010008BB01000860
:10009000BB010008BB010008BB010008BB01000850
:1000A000BB010008BB010008BB010008BB01000840
:1000B000BB0100080000000000000000BB010008B8
:1000C000BB0100080000000000000000BB010008A8
:1000D00000000000BB010008BB0100080000000098
:1000E000BB010008BB010008000000000000000088
:1000F0000000000000000000000000000000000000
:10010000000000000000000000000000BB0100082B
:100110000000000000000000BB010008BB01000857
:10012000BB010008BB010008BB010008BB010008BF
:10013000BB010008000000000000000000000000FB
:10014000BB010008BB010008BB010008BB0100089F
:10015000BB010008BB010008BB010008BB0100088F
:10016000BB010008BB010008BB0100080000000043
:10017000BB010008BB0100080000000000000000F7
:10018000BB010008BB010008BB010008DFF80CD070
:1001900000F06CF80048004765180008880400204B
:1001A0000648804706480047FEE7FEE7FEE7FEE711
:1001B000FEE7FEE7FEE7FEE7FEE7FEE74514000880
:1001C0008D0100082DE9F05F0546002092469B4610
:1001D00088460646814640241BE02846414647465D
:1001E000224600F032F853465A46C01A914110D3C5
:1001F00011461846224600F019F82D1A67EB01083F
:100200004F4622460120002100F010F817EB0009AC
:100210004E41201EA4F10104DFDC484631462A4647
:10022000434600F000B830BCBDE8C09F202A04DB84
:10023000203A00FA02F1002070479140C2F12003F9
:1002400020FA03F3194390407047202A04DB203A38
:1002500021FA02F00021704721FA02F3D040C2F1E6
:10026000200291400843194670470000064C074D94
:1002700006E0E06840F0010394E807009847103476
:10028000AC42F6D3FFF786FF741C0008941C0008EC
:10029000FEE7704770B5044600F0DEF80546601CC6
:1002A00000D0641C00F0D8F8401BA042FAD370BD07
:1002B0002DE9F84FDFF870B1002301274FF0030A52
:1002C0004FF00F090BF1040EA7E000BF07FA03F689
:1002D000324070D04C68022C01D0122C10D1DC08B6
:1002E00000EB8408D8F820405D074FEAD56C09FA86
:1002F0000CF5AC430D6905FA0CF52543C8F8205000
:10030000D0F800805D0091F804C00AFA05F40CF002
:10031000030C28EA04080CFA05FC4CEA080CC0F8A7
:1003200000C0D1F804C0BCF1010F08D0BCF1020F2D
:1003300005D0BCF1110F02D0BCF1120F16D1D0F8CC
:1003400008C0D1F80C802CEA040C08FA05F848EA39
:100350000C08C0F80880D0F804C02CEA060C0E790E
:10036000C6F300169E4046EA0C064660C668A643E1
:100370008C68AC403443C4604C68E4004CD52B4CD2
:10038000256E45F001052566246E23F0030504F073
:1003900001040094264C2E19B4689D074FEA157C81
:1003A00009FA0CF5AC43B0F1904F05D0214DA842AD
:1003B00004D1012508E02FE0002505E01E4DA842EC
:1003C00001D1022500E0072505FA0CF52543B560AB
:1003D000DBF800405D464E689443F60300D51443B5
:1003E0002C60DEF8004075464E689443B60300D595
:1003F00014432C600C4D08352C684E689443F6026B
:1004000000D514432C60084D0C352C684E6894437D
:10041000B60200D514432C605B1C0A6832FA03F460
:100420007FF454AF00F00AB800040140001002400D
:1004300000000140000400480008004818BCBDE866
:10044000E08F0069084000D0012070470AB1816147
:1004500070478162704700000148006870470000E3
:100460000400002002480168491C01607047000038
:100470000400002010B50024032000F083F80020C1
:1004800000F008F808B1012401E000F01BF8204654
:1004900010BD000070B5054609484FF47A7100247C
:1004A0000068B0FBF1F000F07AFD08B1012404E02F
:1004B00000222946501E00F045F8204670BD00007D
:1004C000080000201E4808B5016E41F001010166D8
:1004D000016E01F001010091816D41F08051816553
:1004E000806D00F080500090032000F04BF8002257
:1004F00011466FF00B0000F025F8002211466FF056
:100500000A0000F01FF8002211466FF0090000F009
:1005100019F800221146501F00F014F8002211466D
:10052000101F00F00FF800221146901E00F00AF88C
:100530000022BDE808401146501E00F003B800003C
:1005400000100240F0B40E4B1B680C46C3F30223AC
:10055000C3F10705042D00D90425191D072901D26F
:10056000002300E0DB1E012606FA05F1491E2140AA
:1005700099409E40761E16403143F0BC00F034BED8
:100580000CED00E0064900F0070208684FF6FF0393
:10059000184040EA0220034A1043086070470000F8
:1005A0000CED00E00000FA051649B0F5007F086880
:1005B000C0F3412009D0022805D0086820F4C060AB
:1005C00040F480600860002070470128FBD0086874
:1005D00020F4C06040F4007008600B4832220068CC
:1005E00050430A4AB0FBF2F0401C00E0401E4A694A
:1005F000520501D50028F9D148694005E3D503200B
:1006000070470000007000400800002040420F00CA
:100610000248006800F4C0607047000000700040AD
:100620000248016841F00401016070470010024077
:100630002DE9F84F0446002700889C4D3E460005F2
:1006400015D5E06B60B1B0F5000F04D0B0F5400FE8
:100650002BD001270AE0E86840F48030E86024E00D
:100660000021201D00F0D2FD07001ED03E4620686C
:10067000800338D5A86D4FF00008C00009D4A86DDC
:1006800040F08050A865A86D4FF0010800F0805040
:100690000090DFF81CA2DAF8001041F48071CAF86B
:1006A0000010FFF7D9FE814610E0D5F88800E16B15
:1006B00020F440000843C5F88800D8E7FFF7CCFED7
:1006C000A0EB0900022801D9032704E0DAF80000B2
:1006D000C005F3D5EFB33E46B8F1000F03D0A86DC7
:1006E00020F08050A8652078C00707D0D5F8880092
:1006F000216A20F003000843C5F8880020788007AD
:1007000007D5D5F88800616A20F00C000843C5F8C9
:1007100088002078800607D5D5F88800A16A20F4E3
:1007200040600843C5F888002088800507D5D5F8C3
:100730008800616B20F440200843C5F888002088B9
:10074000400509D5D5F88800A16B20F44010084376
:1007500000E02EE0C5F888002078400607D5D5F8DF
:100760008800E16A20F440500843C5F888002088DA
:10077000C00507D5D5F88800216B20F44030084328
:10078000C5F8880020884FF0006780044FF080682B
:100790004ED5D5F88800216C20F040600843C5F89C
:1007A0008800206CB8423BD1E86840F48010E860D3
:1007B0003EE0D5F8900010F4407014D0216D8142D5
:1007C00011D0D5F89000D5F8901020F4407041F485
:1007D0008031C5F89010D5F8901021F48031C5F81B
:1007E0009010C5F89000C00711D0FFF735FE0746FE
:1007F00041F2883907E000BFFFF72EFEC11B4945D3
:1008000001D9032668E7D5F890008007F4D5D5F81C
:100810009000216D20F440700843C5F890005BE71C
:10082000404505D10121201D00F0F0FC00B1064635
:100830002068400317D5D5F88800616C20F040602F
:100840000843C5F88800606CB84204D1E86840F4F9
:100850008010E86007E0404505D10121201D00F02F
:10086000D5FC00B106462088400411D5D5F8880093
:10087000A16C20F040500843C5F88800A06CB0F18E
:10088000805F05D10221201D00F0C0FC00B10646AA
:100890002088000406D555F8880FE16C20F08040D0
:1008A00008432860304600F005B800000010024000
:1008B0000070004018BCBDE8E08F00002DE9F04753
:1008C0000F46050058D03F4E306800F00700B84290
:1008D00009D2306820F0070038433060306800F0FB
:1008E0000700B84248D12878374CC0072CD0686838
:1008F000032811D0022812D0216898B14905002997
:100900003ADAA16821F003010143A160FFF7A4FDD9
:10091000804641F2883910E021688901EFE72168BB
:100920008903ECE78907EAE7FFF796FDA0EB0801EA
:10093000494502D90320BDE8F087A068696800F046
:100940000C00B0EB810FEFD12878800705D5A068A7
:10095000A96820F0F0000843A060306800F00700AC
:10096000B8420BD9306820F0070038433060306857
:1009700000F00700B84201D00120DCE728784007EA
:1009800005D5A068E96820F4E0600843A0602878F5
:10099000000706D5A068296920F4605040EAC1002C
:1009A000A06000F041F8A168084AC1F30311515C4E
:1009B00001F01F01C84006490860BDE8F04700206B
:1009C000FFF768BD00200240001002402C1C000808
:1009D000080000200148006870470000080000205F
:1009E0000548064900688968054AC1F30221515C3F
:1009F00001F01F01C84070470800002000100240AD
:100A00006C1C00080548064900688968054AC1F35E
:100A1000C221515C01F01F01C8407047080000204E
:100A2000001002406C1C000870B5254900231846D0
:100A30008A68CC6812F00C0204F00306214C4FEADD
:100A4000640509D00C2A05D0042A26D0082A00D132
:100A5000284670BD012E10D10B681B0704D4D1F8B5
:100A60009430C3F3032302E00B68C3F30313164E61
:100A700056F823307AB10C2AEBD1C86800F0030293
:100A8000C868C0F30210401C022A08D0032A09D00B
:100A9000B3FBF0F008E0184670BD204670BDB4FB13
:100AA000F0F001E0B5FBF0F0CA68C968C2F30622B5
:100AB0005043C1F34161491C4900B0FBF1F070BDE6
:100AC000001002400024F4003C1C00082DE9F8430B
:100AD00005007CD0FD4CA06800F00C06E06800F03A
:100AE00003072878C00662D576B10C2E01D1012FFC
:100AF0000AD0A8690028206878D040F00100206062
:100B0000FFF7AAFC804659E02068800702D5A86953
:100B10000028DED0296A2068000703D5206800F08D
:100B2000F00004E0D4F89400F02202EA10108142B0
:100B300016D9084600F000FC002848D1206840F093
:100B4000080020602068296A20F0F0000843206037
:100B50006068E96920F47F4040EA0120606015E0A8
:100B6000206840F0080020602068296A20F0F0002A
:100B7000084320606068E96920F47F4040EA012072
:100B80006060286A00F0D8FB0028D6D1FFF74CFF40
:100B9000A168CF4AC1F30311515C01F01F01C840A5
:100BA000CC4908600020FFF775FC00287ED12EE0BC
:100BB000FFF752FCA0EB0800022878D820688007D5
:100BC000F6D5206840F008002060206801E0BBE016
:100BD0000CE0296A20F0F000084320606068E969B1
:100BE00020F47F4040EA0120606010E020F0010026
:100BF0002060FFF731FC804606E000BFFFF72CFCC9
:100C0000A0EB08000228D8D820688007F6D42878FE
:100C1000C00740D0082E18D00C2E01D1032F14D0BD
:100C20006868B0F5803F17D0B0F5A02F206817D0C6
:100C300020F480302060206820F4802020606868E4
:100C4000E0B1FFF709FC804614E02068800322D55C
:100C50006868002878D01EE0206840F48030EDE716
:100C600040F480202060F7E7FFF7F6FBA0EB0800D8
:100C70006428A2D820688003F6D50CE0FFF7ECFBCF
:100C8000804605E0FFF7E8FBA0EB0800642894D855
:100C900020688003F6D4287880073BD5042E11D035
:100CA0000C2E01D1022F0DD0E86801E05EE1B8E022
:100CB000002820681ED040F480702060FFF7CCFB35
:100CC00007460CE0206840050CD5E8680028C1D034
:100CD00008E000BFFFF7C0FBC01B022893D82068C4
:100CE0004005F7D56068297C20F0F85040EA0160A3
:100CF00060600FE020F480702060FFF7ADFB0746D6
:100D000005E000BFFFF7A8FBC01B0228B1D8206890
:100D10004005F7D42878000729D568690028D4F859
:100D2000940012D040F00100C4F89400FFF794FB47
:100D3000074604E0FFF790FBC01B022871D8D4F8E7
:100D400094008007F6D512E017E120F00100C4F806
:100D50009400FFF781FB074605E000BFFFF77CFB2F
:100D6000C01B02285DD8D4F894008007F6D42878F8
:100D7000400766D5A06D0027C00008D4A06D40F0E4
:100D80008050A065A06D012700F08050009052486F
:100D90000168C90512D40168814641F4807101607F
:100DA000FFF75AFB804605E0FFF756FBA0EB080073
:100DB000022836D8D9F80000C005F5D5A868012862
:100DC00016D00528D4F8900017D020F00100C4F800
:100DD0009000D4F8900020F0040000BFC4F8900008
:100DE000A86841F28839C0B1FFF736FB80460FE0B2
:100DF000D4F8900040F00100F0E740F00400C4F89F
:100E00009000F5E7FFF728FBA0EB0801494508D85B
:100E1000D4F890008007F5D50EE0FFF71DFB804663
:100E200006E07CE0FFF718FBA0EB0801494576D807
:100E3000D4F890008007F5D41FB1A06D20F0805049
:100E4000A0652878800628D5686A0028D4F898001C
:100E500012D040F00100C4F89800FFF7FDFA0746F1
:100E600005E000BFFFF7F8FAC01B02287DD8D4F8D0
:100E700098008007F6D510E020F00100C4F8980033
:100E8000FFF7EAFA074604E0FFF7E6FAC01B02287C
:100E90006BD8D4F898008007F6D4A86AF0B30C2E6B
:100EA0006BD00228206820F08070206018D0206865
:100EB000000103D4E06820F00300E060E068074927
:100EC0000840E060FFF7C8FA054651E00010024014
:100ED0002C1C00080800002000700040FFFFEEFE00
:100EE000FFF7BAFA064604E0FFF7B6FA801B0228BD
:100EF0003BD820688001F7D4286B55F82C1F0001DF
:100F000010380843298A1E4A490802EB4151AA6851
:100F100041EA02210843297D490801E02BE024E051
:100F20004FF07E4202EB41610843297B40EAC160F9
:100F3000E060206840F080702060E06840F08070E1
:100F4000E060FFF789FA054605E000BFFFF784FA85
:100F5000401B022809D820688001F7D50BE000BFAC
:100F6000FFF77AFA401B022802D90320BDE8F88374
:100F700020688001F4D40020F8E70120F6E70000A3
:100F80000000E0FF4FF0E0210428086903D020F0C2
:100F900004000861704740F00400FAE7704710B59C
:100FA000401EB0F1807F01D3012010BD4FF0E0243E
:100FB00060610F21601700F017F90020A061072081
:100FC0002061002010BD10B5FFF7E8FF10BD10B57F
:100FD000040003D094F8710010B107E0012010BDA7
:100FE000002084F87000204600F026F8242084F8C1
:100FF00071002068016821F001010160204600F0C5
:10100000D5FA0128EBD0606A10B1204600F03CFA16
:101010002068416821F4904141602068816821F096
:101020002A0181602068016841F0010101602046C9
:10103000BDE8104000F08CBAF0B50068134987B0E5
:10104000884221D11248816D41F400318165806D63
:10105000022500F400300590042000268DE8610090
:1010600003240720CDE903404FF0904769463846F6
:10107000FFF71EF9A803CDE90005CDE90264694632
:1010800004943846FFF714F907B0F0BD004400405F
:10109000001002402DE9F843044690F871001F4605
:1010A00016460D4620284BD1C5B1BEB194F870004C
:1010B000012845D0012084F870004FF00008C4F8E2
:1010C0007480212084F87100FFF7C6F9A4F85060FD
:1010D0008146A4F852604FF4805615E00120BDE827
:1010E000F8838021204600F07BFBD8B9A068B0428D
:1010F00001D12069C0B115F8010B21680885B4F849
:101100005200401EA4F85200B4F852004B464FF073
:10111000000200970028E4D14FF04001204600F083
:101120005FFB30B10320DAE735F8020BC0F30800AB
:10113000E3E7202084F8710084F870800020CEE777
:101140000220CCE7FEE7000030B5174887B0C16C3D
:1011500041F00401C164C16C01F004010591C16C4E
:1011600041F00101C164C06C4FF0904500F00100F6
:101170000590002278212846FFF768F97820009032
:1011800001200024CDE90104694628460394FFF7B5
:101190008FF84FF47060CDE9000469462846029448
:1011A000FFF786F807B030BD001002400C4810B5BC
:1011B0000A4901604FF4E1314160002181600C2255
:1011C000C160C0E904128161C16101624162FFF73F
:1011D000FEFE002800D0FEE710BD000000440040E5
:1011E0000C000020FEE770470907090E002806DA08
:1011F00000F00F0000F1E02080F8141D704700F1AE
:10120000E02080F800147047704700002DE9F0419D
:10121000444C05468846E0680026810728680DD0C2
:10122000E16801F00301814216D1A8B1E068696864
:10123000C0F30210401C88420ED120E0012804D0E7
:10124000022805D0032807D108E02168890701E0BA
:1012500021684905002907DB01265FE02168890331
:1012600002D421684903F5E7E1686A686FF00F036B
:1012700021F0730103EB021211430143E160206886
:1012800020F080602060FFF7E7F8074605E000BF28
:10129000FFF7E2F8C01B022837D820680001F7D416
:1012A000B8F1000F18D0B8F1010F1DD0287D4FF014
:1012B0007E41400801EB4060A96840EA01202169B5
:1012C000194A114008432061206840F08060206086
:1012D000FFF7C2F807461AE0A868297B000240EA37
:1012E000C1602169114AECE7288A1149400801EBE5
:1012F0004050A96840EA012021690E4AE1E700BF99
:10130000FFF7AAF8C01B022801D9032606E02068CF
:101310000001F5D52069A969084320613046BDE880
:10132000F081000000100240FF80FFF9FF80FF07FE
:101330000000E0FFFF809FFFF8B51C4D064600242B
:10134000A86DC00002D5FFF763F90DE0A86D40F06D
:101350008050A865A86D00F080500090FFF758F904
:10136000A96D21F08051A965B0F5007F04D0802ED1
:1013700007D94FF003040AE0802E08D9A02E01D827
:1013800004E001D1022402E0702E00D101240848BB
:10139000016821F0070121430160006800F00700A7
:1013A000A04201D00120F8BD0020F8BD001002408D
:1013B00000200240704710B5FFF754F8BDE8104018
:1013C000FFF701BE10B5ACB01420009005200290CC
:1013D00000240120CDE90604602008900A946846A4
:1013E000FFF774FB00B1FEE70F20CDE92604289437
:1013F0002994002126A82A94FFF760FA00B1FEE79D
:10140000022011901A9411A8FFF712F900B1FEE71B
:101410004FF40070FFF7C8F800B1FEE7FFF7DAFA03
:101420004FF47A71B0FBF1F0FFF7B9FD0420FFF73C
:10143000A9FDFFF7F5F800221146501EFFF782F8CC
:101440002CB010BD0D48016841F4700101600C48DA
:10145000016841F001010160002181600268094BCF
:101460001A4002608214C260026822F48022026084
:1014700081610249C00380390860704788ED00E04F
:1014800000100240FFFFF6EA90F82410C90706D0CA
:1014900001684A68836A22F400321A434A6090F86D
:1014A0002410890706D501684A68C36A22F480328D
:1014B0001A434A6090F82410490706D501684A6823
:1014C000036B22F480221A434A6090F82410090723
:1014D00006D501684A68436B22F400421A434A6009
:1014E00090F82410C90606D501688A68836B22F437
:1014F00080521A438A6090F82410890606D5016844
:101500008A68C36B22F400521A438A6090F8241050
:10151000490611D501684A68036C22F480121A4307
:101520004A60016CB1F5801F06D101684A68436CBE
:1015300022F4C0021A434A6090F82410090606D526
:1015400001684A68806C22F4002202434A607047B6
:10155000F8B5002604464667FEF77EFF054620687C
:1015600000686FF07E47000708D52B4600224FF435
:1015700000112046009700F033F960B92068006838
:1015800040070AD52B4600224FF4800120460097E1
:1015900000F026F908B10320F8BD202084F871007E
:1015A00084F8720084F870600020F8BD2DE9F041E5
:1015B0000446026880682369E66918436369102558
:1015C0000027334318437D4913687D4E334003435E
:1015D000136020684268E36822F440521A43426074
:1015E0002268A0698A4201D0236A1843936823F4D1
:1015F000306303439360734A2368734893420DD169
:10160000D0F8880010F0030006D001282AD0022864
:1016100026D0032829D127E0012526E06B4A9342F2
:101620000BD1D0F8880010F00C0017D0042819D086
:10163000082815D00C2818D116E08B4215D1D0F807
:10164000880010F4406009D0B0F5806F0AD0B0F582
:10165000006F05D0B0F5406F07D105E0002504E02C
:10166000022502E0042500E00825594A00264FF42F
:1016700000408B423DD135B1022D07D0042D07D05B
:10168000082D10D107E0FFF7ABF903E0104602E0A8
:10169000FFF7CAF9A8B3626802EB4201814202D89F
:1016A000B0EB023F01D9012775E0DFF828815DB179
:1016B000022D0CD0042D13D0082DF4D1500829058B
:1016C000401846F1000105E0FFF78AF90AE05008EA
:1016D0004149F5E70023FEF775FDA0F5407156E09E
:1016E000FFF7A2F96268010E030250081818714151
:1016F000F0E7E1694FF6EF7881422FD1092DD2D280
:1017000000E048E0DFE805F00609200523050505AF
:101710002600C8E7FFF764F901E0FFF773F941001D
:10172000D4F8040001EB5001B1FBF0F080B2A0F15D
:1017300010014145B7D84FF6F0710140C0F34200A7
:1017400001432068C16026E024496068EAE7FFF7AA
:101750006BF9E4E74FF480316068E3E7092DA2D22A
:10176000DFE805F006091E052205050525009AE7B4
:10177000FFF736F901E0FFF745F90146606801EB34
:10178000500100BFB1FBF0F080B2A0F11001414563
:1017900089D82168C860266638466666BDE8F0814B
:1017A000606802EB5001EDE7FFF73EF9E5E761689D
:1017B00000EB5100B0FBF1F0E6E7000000800040D4
:1017C000F369FFEF00380140001002400044004080
:1017D0000024F400FFFC0F00000024F40048E8019E
:1017E0002DE9F041984617460E460446069D1DE039
:1017F000681C1BD02DB1FEF72FFEA0EB0800A842FD
:1018000014D92068016821F4D071016020688168D2
:1018100021F001018160202084F8710084F87200B9
:10182000002084F870000320BDE8F0812068C069C2
:1018300036EA000004D00020B842D9D00020F3E7F7
:101840000120F9E7FEE702E008C8121F08C1002ADC
:10185000FAD170477047002001E001C1121F002A31
:10186000FBD17047FEF706FEFFF7ACFDFFF76CFCFF
:10187000FFF79CFCEB4D4FF4807B4FF480684FF0FA
:1018800090444FF4006A002208212046FEF7DEFD56
:10189000012210212046FEF7D9FD012220212046F9
:1018A000FEF7D4FD012240212046FEF7CFFD5E4623
:1018B00059462046FEF7C5FD88B931462046FEF759
:1018C000C0FD0028F9D0312028704FF47A7301222E
:1018D000D449D548FFF7DEFBFA20FEF7DBFC4FF4D6
:1018E000007739462046FEF7ACFD88B939462046D8
:1018F000FEF7A7FD0028F9D0342028704FF47A7342
:101900000122C849C848FFF7C5FBFA20FEF7C2FC10
:1019100041462046FEF795FD88B941462046FEF730
:1019200090FD0028F9D0372028704FF47A730122F7
:10193000BC49BD48FFF7AEFBFA20FEF7ABFCD14631
:1019400051462046FEF77DFD88B949462046FEF700
:1019500078FD0028F9D0302028704FF47A730122E6
:10196000B049B148FFF796FBFA20FEF793FC01223D
:1019700008212046FEF76AFD002210212046FEF7CE
:1019800065FD012220212046FEF760FD0122402155
:101990002046FEF75BFD31462046FEF752FD88B932
:1019A00031462046FEF74DFD0028F9D03220287040
:1019B0004FF47A7301229B499B48FFF76BFBFA2097
:1019C000FEF768FC39462046FEF73BFD88B93946EC
:1019D0002046FEF736FD0028F9D0352028704FF458
:1019E0007A7301228F499048FFF754FBFA20FEF7E3
:1019F00051FC41462046FEF724FD88B94146204669
:101A0000FEF71FFD0028F9D0382028704FF47A73B4
:101A1000012284498448FFF73DFBFA20FEF73AFC97
:101A2000CA4649462046FEF70CFD88B95146204675
:101A3000FEF707FD0028F9D0462028704FF47A738E
:101A4000012278497848FFF725FBFA20FEF722FCAF
:101A5000012208212046FEF7F9FC01221021204630
:101A6000FEF7F4FC002220212046FEF7EFFC0122C5
:101A700040212046FEF7EAFC31462046FEF7E1FC15
:101A800088B931462046FEF7DCFC0028F9D0332027
:101A900028704FF47A73012262496348FFF7FAFA1B
:101AA000FA20FEF7F7FBB94639462046FEF7C9FC97
:101AB00090B94F4639462046FEF7C3FC0028F9D0BE
:101AC000362028704FF47A73012256495648FFF7A2
:101AD000E1FAFA20FEF7DEFB41462046FEF7B1FCB4
:101AE00090B9474639462046FEF7ABFC0028F9D0AE
:101AF000392028704FF47A7301224A494A48FFF787
:101B0000C9FAFA20FEF7C6FB574651462046FEF7B3
:101B100098FC88B939462046FEF793FC0028F9D096
:101B2000452028704FF47A7301223E493E48FFF762
:101B3000B1FAFA20FEF7AEFB012208212046FEF79B
:101B400085FC012210212046FEF780FC0122202185
:101B50002046FEF77BFC002240212046FEF776FC63
:101B600031462046FEF76DFC88B931462046FEF727
:101B700068FC0028F9D0412028704FF47A730122C4
:101B800028492948FFF786FAFA20FEF783FB4E46DC
:101B900049462046FEF755FC88B931462046FEF7F7
:101BA00050FC0028F9D0422028704FF47A730122AB
:101BB0001C491D48FFF76EFAFA20FEF76BFB4646FC
:101BC00041462046FEF73DFC88B931462046FEF7E7
:101BD00038FC0028F9D0432028704FF47A73012292
:101BE00010491148FFF756FAFA20FEF753FB394621
:101BF0002046FEF726FC00287FF445AE39462046F5
:101C0000FEF71FFC0028F9D0442028704FF47A73A7
:101C1000012204490448FFF73DFAFA20FEF73AFB97
:101C200031E60000000000200C0000200000000051
:101C3000000000000102030406070809A086010055
:101C4000400D0300801A060000350C0040420F00D2
:101C500080841E0000093D0000127A000024F40078
:101C600000366E010048E801006CDC020000000054
:101C700001020304941C0008000000200C00000076
:101C800046180008A01C00080C0000207C0400007E
:101C900056180008000000000000000000093D0088
:040000050800018D61
:00000001FF
