:020000040800F2
:10000000D0050020A1010008CB2E00087D2A0008A1
:10001000C92E0008F5030008493800080000000058
:100020000000000000000000000000002D3100086A
:10003000F703000800000000CD2E00085B31000827
:10004000BB010008BB010008BB010008BB010008A0
:10005000BB010008BB010008BB010008BB01000890
:10006000BB010008BB010008BB010008BB01000880
:10007000BB010008BB010008BB010008BB01000870
:10008000BB010008BB010008BB010008BB01000860
:10009000BB010008BB010008BB010008BB01000850
:1000A000BB01000879320008BB010008BB01000851
:1000B000BB0100080000000000000000BB010008B8
:1000C000BB0100080000000000000000BB010008A8
:1000D00000000000BB010008BB0100080000000098
:1000E000BB010008B530000800000000000000005F
:1000F0000000000000000000000000000000000000
:10010000000000000000000000000000BB0100082B
:100110000000000000000000BB010008BB01000857
:10012000BB010008BB010008BB010008BB010008BF
:10013000BB010008000000000000000000000000FB
:10014000BB010008BB010008BB010008BB0100089F
:10015000BB010008BB010008BB010008BB0100088F
:10016000BB010008BB010008BB0100080000000043
:10017000BB010008BB0100080000000000000000F7
:10018000BB010008BB010008BB010008DFF80CD070
:1001900000F090F800480047E53F0008D005002037
:1001A0000648804706480047FEE7FEE7FEE7FEE711
:1001B000FEE7FEE7FEE7FEE7FEE7FEE73132000876
:1001C0008D0100082DE9F05F0546002092469B4610
:1001D00088460646814640241BE02846414647465D
:1001E000224600F056F853465A46C01A914110D3A1
:1001F00011461846224600F03DF82D1A67EB01081B
:100200004F4622460120002100F034F817EB000988
:100210004E41201EA4F10104DFDC484631462A4647
:10022000434600F000B830BCBDE8C09F10B50022C6
:1002300000E0521C835C8C5CA34201D1002BF8D1FE
:10024000D8B2E1B2401A10BD30B50B4601460020CD
:100250002022012409E021FA02F59D4205D303FA88
:1002600002F5491B04FA02F52844151EA2F1010209
:10027000F1DC30BD202A04DB203A00FA02F1002034
:1002800070479140C2F1200320FA03F319439040D4
:100290007047202A04DB203A21FA02F0002170473F
:1002A00021FA02F3D040C2F12002914008431946DE
:1002B00070470000064C074D06E0E06840F001037F
:1002C00094E8070098471034AC42F6D3FFF762FF7A
:1002D000504100087041000870B5044620688168EC
:1002E000C1F34001826802F00102002A37D00029E0
:1002F00035D1816801F00D01012909D0606D40F010
:1003000010006065A06D40F00100A065012070BD87
:10031000816821F03F0121F0004141F0020181603C
:1003200021680320086000F0A9FD05462068806868
:1003300010F0010F13D000F0A1FD401B022809D9D5
:10034000606D40F010006065A06D40F00100A06598
:10035000012070BD2068806810F0010FEBD10020F3
:1003600070BD70B504462068816801F00101002964
:100370003ED181686FF39E1149B1606D40F010006D
:100380006065A06D40F00100A065012070BD81682E
:1003900021F03F0121F0004141F00101816000F0B6
:1003A0006DFD05462068006810F0010F20D120681F
:1003B000816801F0010139B9816821F03F0121F024
:1003C000004141F00101816000F058FD401B02280E
:1003D00009D9606D40F010006065A06D40F001002B
:1003E000A065012070BD2068006810F0010FDED00C
:1003F000002070BDFEE77047074908B50968074A45
:10040000B1FBF2F1064A4143506853681B1A00934E
:100410008B42FAD308BD00002C00002040420F00A0
:10042000001000E01CB50749012301AA097908431F
:100430008DF804000A2000904E21034800F0DCFDF6
:100440001CBD00000000002094000020F8B5044608
:100450000E460025009594F85000012810D0012088
:1004600084F850002046FFF737FF0246100009D0FD
:10047000606D40F01000606584F850501046F8BD83
:100480000220F8BD606D20F4885040F002006065E5
:100490002068816821F08041314381602068816853
:1004A00041F00041816020688168C90FA1B10099C5
:1004B000491C00910099B1F5912F09D3606D20F08E
:1004C000020040F01000606584F850500120F8BD33
:1004D0008168C90F0029EAD1606D20F0020040F068
:1004E00001006065C8E700002DE9F80700239C467D
:1004F000CDF800C0F94D90F85020012A12D0012407
:1005000080F8504002689268C2F3800272B1416D77
:1005100041F020014165012380F850C01846BDE834
:10052000F8077047BDE8F807022070474A68052AB7
:1005300009D8022A2BD0032A2CD0042A2DD0052A30
:100540002ED006224A608E8802680F6806F4407832
:1005500002EB981206F01F064FF01F0909FA06F980
:10056000D2F83080C7F3846728EA090807FA06F64C
:1005700048EA0606166302689668C6F3800697681E
:10058000C7F3C00737434FF007060DD0A6E00C2293
:100590004A60D8E712224A60D5E718224A60D2E7BB
:1005A0004FF480724A60CEE7D1F808800F6807F0F8
:1005B000007902EBD952C7F3045706FA07FAD2F8CA
:1005C000149008FA07F729EA0A0949EA0707576168
:1005D00002684F69D2F80C80C8F3C1084FEA480896
:1005E00007FA08F80F69042F12D0D1F8009002EB37
:1005F0008702DFF8ECA2176E09F0F84907EA0A074C
:1006000049EA080847EA080747F00047176665E027
:1006100002F16007D7F8008008F0F8474FEA9769C1
:100620000F68C7F3120ABAF1000F5DD097FAA7F767
:10063000B7FA87F7B94502D128F000471766026874
:10064000171D6432D2F8008008F0F8424FEA926930
:100650000A68C2F3120ABAF1000F48D092FAA2F265
:10066000B2FA82F2914504D107F1600228F0004706
:100670001760026802F108076832D2F8008008F0BB
:10068000F8424FEA92690A68C2F3120ABAF1000FFF
:1006900030D092FAA2F2B2FA82F2914504D107F177
:1006A000600228F000471760026802F10C086C3203
:1006B000176807F0F8424FEA92690A68C2F3120A13
:1006C000BAF1000F19D092FAA2F2B2FA82F2914571
:1006D00004D108F1600227F00047176002689768AC
:1006E00007F0010767B1AAE0C7F38467A2E7C2F386
:1006F0008462B7E7C2F38462CFE7C2F38462E6E7BD
:1007000091F80C800F68D2F8B090C7F3120A29EA6A
:100710000A09DFF8D0A108F018082AFA08F808EA50
:10072000070749EA0707C2F8B070CA68AA427DD134
:100730000A68076812EA0A051AD092FAA2F5B5FA11
:1007400085F56D1C05F01F05092D32D8C2F3120581
:10075000002D10D092FAA2F5B5FA85F505F1010544
:1007600005F01F0504FA05F508D1C2F3846409E019
:10077000C2F38465E5E7C2F38465EFE792FAA2F479
:10078000B4FA84F404F1010404F01F0445EA84641B
:1007900002D1C2F3846203E092FAA2F2B2FA82F2C8
:1007A00002F1010202F01F0202EB420244EA02548B
:1007B00032E0C2F31205002D0DD092FAA2F5B5FA7F
:1007C00085F505F1010505F01F0504FA05F505D1CC
:1007D000C2F3846406E0C2F38465F2E792FAA2F4FD
:1007E000B4FA84F404F1010404F01F0445EA8464BB
:1007F00002D1C2F3846203E092FAA2F2B2FA82F268
:1008000002F1010202F01F02A2F10A0202EB42020F
:1008100044EA025242F000748D6804F0007207EB63
:10082000D252C4F3045406FA04F600E007E0576914
:1008300005FA04F427EA060646EA040454610A6845
:1008400029490A423FF468AE284CA16801F0E071E2
:10085000274D02F1605616F52E0602D111F4000F55
:100860001CD002F1505616F5F80602D111F0807F27
:1008700044D06FF00046F2427FF44EAE11F4800F88
:100880007FF44AAE0268AA427FF446AE41F480018A
:10089000A26822F0E0721143A1603DE60268AA421C
:1008A0007FF43AAE41F40001A26822F0E0721143F5
:1008B000A1601049104A0968B1FBF2F101EB410156
:1008C00089000091009900293FF426AE0099491E45
:1008D000009100990029F9D11EE6000000007F4038
:1008E00000F0FF03FFFF0700000008800003045032
:1008F000000004502C000020400D03000268AA42B2
:100900007FF40AAE41F08071A26822F0E0721143D8
:10091000A16001E60068006C70470000F8B504466D
:10092000002500260096002C02D0606D10B107E073
:100930000120F8BD204600F0CDF8A66584F850608F
:1009400020688168C1F3407129B1816821F03F01BD
:1009500021F02041816020688168C1F30071A9B94C
:10096000816821F03F0121F0004141F08051816018
:10097000534854490068B0FBF1F00090009828B14A
:100980000098401E009000980028F9D120688168E6
:10099000C1F3007141B9616D41F010016165A16D54
:1009A00041F00101A16501258168C1F38001626DFB
:1009B00012F0100F00D131B1606D40F01000606591
:1009C00001252846F8BD616D21F4807141F00201D6
:1009D0006165806800F0010058B93B48806800F00C
:1009E000010030B9606839498A6822F47C121043EA
:1009F0008860E168606B627E0843A16841EA423129
:100A0000084394F8201040EA0140012903D1A18C49
:100A1000491E40EA4140A16A21B101F47071E26AC5
:100A2000084310432168CA68294B1A401043C86024
:100A300020688168C1F380018268C2F3C00211435B
:100A400015D1217E94F83020890341EA4201C26821
:100A500022F0020222F480421143C16094F838006F
:100A6000012813D02068016921F00101016120698A
:100A700001281CD02068016B21F00F010163606D1B
:100A800020F0020040F0010060659AE7216CE06B05
:100A9000A26C0843616C114340EA010220680169BD
:100AA0006FF38A01114341F001010161DFE7206822
:100AB000016BE26921F00F01521E11430163DEE771
:100AC0002C000020400D03000000045000030450DF
:100AD00007C0F0FF00B500680C4987B0884213D109
:100AE0000B48C16C41F40051C164C06C694600F40C
:100AF00000500590082000900B20019000200290EB
:100B00004FF0904000F0C0F807B000BD0000045066
:100B1000001002402DE9F04104460D4660690828A6
:100B20000BD02068C06810F0010F08D0606D40F055
:100B3000200060650120BDE8F081082600E0042661
:100B400000F09CF907462068006830420CD1B5F1EE
:100B5000FF3F05D000F092F9C01BA84212D88DB11A
:100B6000206800683042F2D0606D40F4007060652B
:100B70002068C16811F4406F0ED00021F1B1617E90
:100B800061B11BE0606D40F004006065002084F8F6
:100B900050000320BDE8F0810121EFE7016811F06A
:100BA000080F0BD0616D21F480716165616D11F4E6
:100BB000805F03D1616D41F001016165C168082E5C
:100BC00003D011F4804F03D004E00821016001E05C
:100BD0000C2101600020BDE8F08110B504462068BA
:100BE0008068C0F38000002802D00221084610BDB2
:100BF00094F8500001280BD0012084F850002046C2
:100C0000FFF7AFFB0146002021B184F85000EDE76B
:100C1000022010BD626D22F0010222F4606242F4F3
:100C200080726265626D12F4805F04D0A26D22F062
:100C30000602A26500E0A06523681C221A6084F801
:100C400050002068C26812F0007F05D0626D22F467
:100C5000005242F480526265826822F03F0222F024
:100C6000004242F004028260C0E770B5044600F022
:100C700005F90546B4F1FF3F00D0641C00F0FEF812
:100C8000401BA042FAD370BD2DE9F84F00220B683B
:100C9000002B7DD0DFF8B4810F2708F1040909F19A
:100CA000040A0AF1040E0123D1F800C003FA02F588
:100CB0000CEA0503002B6CD0D1F804C0BCF1020F84
:100CC00002D0BCF1120F12D14FEAD20C00EB8C0C07
:100CD000DCF820605407E40E07FA04FB26EA0B0652
:100CE000D1F810B00BFA04F43443CCF82040066875
:100CF0004FEA420C032404FA0CF4A64391F804B022
:100D00000BF0030B0BFA0CFB4BEA060606604E6871
:100D1000012E05D0022E03D0112E01D0122E11D19A
:100D20008668A643D1F80CB00BFA0CFB4BEA06061A
:100D30008660466826EA05050E79C6F300169640D9
:100D400035434560C56825EA04048D6805FA0CFC46
:100D50004CEA040CC0F80CC0D1F804C01CF0805F51
:100D600063D0DFF8ECC0DCF8604044F00104CCF85C
:100D70006040DCF860C00CF0010CCDF800C022F03F
:100D8000030C0CF1804505F58035D5F808C001E06D
:100D900050E04AE09407240F07FA04F62CEA06060E
:100DA000B0F1904F4BD0A0F1904CBCF5806C43D08B
:100DB000A0F1904CBCF5006C44D04FF0070C0CFA3D
:100DC00004FC4CEA060CC5F808C0D8F800C02CEAB0
:100DD000030C4C6814F4803F01D04CEA030CC8F8B3
:100DE00000C0D9F800C02CEA030C4C6814F4003F92
:100DF00001D04CEA030CC9F800C0DAF800C02CEAB4
:100E0000030C4C6814F4801F01D04CEA030CCAF8A0
:100E100000C0DEF800C02CEA030C4C6814F4001F7C
:100E200001D04CEA030CCEF800C0521C0B68D34032
:100E30007FF439AF00F00EB84FF0010CBFE74FF070
:100E4000000CBCE74FF0020CB9E7000000040140C1
:100E50000010024018BCBDE8E08F0069084201D0D4
:100E6000012070470020704742695140416170473E
:100E7000002A01D081617047816270470148006893
:100E8000704700002800002090F84120202A01D05F
:100E90000220704790F84020012A20D0012280F8DB
:100EA0004020242280F841200268136823F00103C7
:100EB00013600268136823F4805313600268136898
:100EC0001943116001680A6842F001020A6020219A
:100ED00080F84110002180F8401000207047022067
:100EE000704790F84120202A01D00220704790F8E6
:100EF0004020012A1ED0012280F84020242280F8C0
:100F000041200268136823F001031360026813682C
:100F100023F4706343EA0121116001680A6842F01A
:100F200001020A60202180F84110002180F8401061
:100F3000002070470220704770B50446002C04D092
:100F400094F84100002510B106E0012070BD84F83E
:100F50004050204600F002F9242084F84100206827
:100F6000016821F0010101606068216820F0706073
:100F700008612068816821F400418160E0680128EF
:100F800008D0A068216840F404408860E068022826
:100F900006D009E0A068216840F400408860F5E7C9
:100FA00021684FF4006048602068416841F40041C6
:100FB00041F0007141602068C16821F40041C160C6
:100FC000616920690843A16940EA01202168C8607D
:100FD000216AE0690843216808602068016841F0DF
:100FE000010101606564202084F84100256384F8D4
:100FF0004250002070BD00002DE9F84F0446DDF896
:101000002880894617469A4694F84100202802D045
:10101000022000F09FB894F84000012810D0012071
:1010200084F84000FFF72AFF054601221923D10367
:101030002046009501F09CFD28B1012000F08AB8FF
:10104000022000F087B8212084F84100102084F8A5
:101050004200002666646762A4F82AA06663618D78
:101060003A48FF27FF2908D93A462785C30200904E
:101070004946204601F062FD0AE0618D218500901D
:1010800094F828204FF000734946204601F056FDA1
:10109000608D00283FD02A464146204601F0CAFD17
:1010A00010B1012000F056B8606A216800788862AB
:1010B000606A401C6062608D401E6085208D401E0D
:1010C00080B22085618D19B310BB43460022802178
:1010D0002046009501F04CFD10B1012000F03AB817
:1010E000608DFF2809D93A4627854FF0807349461D
:1010F0002046009601F022FD0AE0608D20850096D2
:1011000094F828204FF000734946204601F016FD60
:10111000608D0028BFD12A464146204601F05EFD81
:1011200010B1012000F016B820682021C1612068AC
:101130004268074B1A40426084F8411084F84260CC
:1011400084F84060002000F005B800000020008016
:1011500000E800FE18BCBDE8E08F000000B50068A4
:101160000F4987B0884218D14FF4C0600090122018
:10117000019001200290032003900420049069460E
:101180004FF09040FFF780FD0648816D41F400115B
:101190008165806D00F40010059007B000BD00006F
:1011A000005400400010024002480168491C0160E0
:1011B000704700002800002010B50024032000F034
:1011C000A3F8002000F008F808B1012401E000F0C5
:1011D0001BF8204610BD000070B5054600240948E4
:1011E0004FF47A720068B0FBF2F001F07FF908B1B9
:1011F000012404E000222946501E00F051F8204648
:1012000070BD00002C0000201E4808B5016E41F0A2
:1012100001010166016E01F001010091816D41F053
:1012200080518165806D00F080500090032000F0B7
:101230006BF8002211466FF00B0000F031F800222D
:1012400011466FF00A0000F02BF8002211466FF0F3
:10125000090000F025F800221146501F00F020F888
:1012600000221146101F00F01BF800221146901EAC
:1012700000F016F80022BDE808401146501E00F0AC
:101280000FB800000010024000F01F01012202FA16
:1012900001F14009800000F1E020C0F80011704722
:1012A00010B4184B1B68C3F30223C3F1070CBCF145
:1012B000040F01D94FF0040C1C1D072C01D2002390
:1012C00000E0DB1E012404FA0CFCACF1010C0CEA7A
:1012D0000101994004FA03F35B1E1A4011430028F0
:1012E00008DA00F00F0000F1E020090180F8141D79
:1012F00010BC704700F1E020090180F8001410BC18
:10130000704700000CED00E000F00700064A11688D
:101310004FF6FF03194041EA002040F0FD7040F015
:1013200080601060704700000CED00E01949B0F5D6
:10133000007F0DD0086800F4C060B0F5806F05D064
:10134000086820F4C06040F48060086000207047A6
:10135000086800F4C060B0F5007FF7D0086820F49A
:10136000C06040F4007008600B48322200684243BD
:101370000A48B2FBF0F0401C00E0401E4A6912F43B
:10138000806F01D00028F8D1486910F4806FDDD05B
:1013900003207047007000402C00002040420F00E6
:1013A0000248006800F4C060704700000070004010
:1013B0000248016841F4807101607047007000408C
:1013C0000248016841F004010160704700100240CA
:1013D0002DE9F84F0446002500262088AA4F10F476
:1013E000006F0AD0E06BC0B1B0F5000F10D0B0F5BF
:1013F000400F00D00125B5B12E46206810F4003F03
:1014000046D04FF00008B86D10F0805F14D01DE09A
:10141000F86840F48030F860EDE70021201D01F00D
:1014200057FD0546E7E7D7F88800E16B20F4400058
:101430000843C7F88800E0E7B86D40F08050B86511
:10144000B86D00F0805000904FF00108DFF83CA22A
:10145000DAF8000040F48070CAF80000FFF70EFDD3
:101460008146DAF8000010F4807F0CD1FFF706FD0A
:10147000A0EB0900022801D9032504E0DAF80000F6
:1014800010F4807FF2D025B12E46B8F1010F40D084
:1014900043E0D7F8900000F44070A0B1216D814284
:1014A00011D0D7F8900020F44070D7F8901041F494
:1014B0008031C7F89010D7F8901021F48031C7F828
:1014C0009010C7F8900010F0010F16D0FFF7D6FC6F
:1014D0008146D7F8900010F0020F0ED141F2883A01
:1014E000FFF7CCFCA0EB0900504501D9032504E02F
:1014F000D7F8900010F0020FF2D00DB12E46C4E7DD
:10150000D7F89000216D20F440700843C7F8900090
:10151000BBE7B86D20F08050B865207810F0010F5F
:1015200007D0D7F88800216A20F003000843C7F8E5
:101530008800207810F0020F07D0D7F88800616A81
:1015400020F00C000843C7F88800207810F0200F26
:1015500007D0D7F88800A16A20F440600843C7F894
:101560008800208810F4007F07D0D7F88800616BCE
:1015700020F440200843C7F88800208810F4806FCA
:1015800007D0D7F88800A16B20F440100843C7F8B3
:101590008800207810F0400F07D0D7F88800E16A63
:1015A00020F440500843C7F88800208810F4807F5A
:1015B00007D0D7F88800216B20F440300843C7F8E3
:1015C0008800208810F4005F1AD0D7F88800216CBA
:1015D00020F040600843C7F88800206CB0F1006F2D
:1015E00003D0B0F1806F05D00AE0F86840F48010B5
:1015F000F86005E00121201D01F06AFC00B10646FB
:10160000206810F4802F1AD0D7F88800616C20F081
:1016100040600843C7F88800606CB0F1006F03D0E9
:10162000B0F1806F05D00AE0F86840F48010F860EF
:1016300005E00121201D01F04BFC00B10646208889
:1016400010F4804F11D0D7F88800A16C20F04050E2
:101650000843C7F88800A06CB0F1805F05D1022173
:10166000201D01F035FC00B10646208810F4004F23
:1016700007D0D7F88800E16C20F080400843C7F815
:101680008800304600F004B80010024000700040AE
:1016900018BCBDE8E08F00002DE9F04704460D4678
:1016A000002C17D0DFF85081D8F8000000F00700B8
:1016B000A84212D2D8F8000020F007002843C8F84A
:1016C0000000D8F8000000F00700A84205D0012073
:1016D000BDE8F0870120BDE8F0872078474F10F083
:1016E000010F42D06068032807D002280CD090B1C7
:1016F000396811F4806F2ED011E0396811F0007F45
:101700000DD10120BDE8F087396811F4003F06D102
:101710000120BDE8F087396811F0020F18D0B968D0
:1017200021F003010843B860FFF7A8FB0646B8683C
:10173000616800F00C00B0EB810F16D041F28839DF
:10174000FFF79CFB801B484508D90320BDE8F087C4
:101750000120BDE8F0870120BDE8F087B868616826
:1017600000F00C00B0EB810FEAD1207810F0020FEE
:1017700005D0B868A16820F0F0000843B860D8F838
:10178000000000F00700A8420FD9D8F8000020F0B0
:1017900007002843C8F80000D8F8000000F0070050
:1017A000A84202D00120BDE8F087207810F0040F95
:1017B00005D0B868E16820F4E0600843B86020789C
:1017C00010F0080F06D0B868216920F4605040EA94
:1017D000C100B86000F042F8B968094AC1F30311CA
:1017E000515C01F01F01C84006490860BDE8F047A0
:1017F0000020FFF7F1BC0000002002400010024072
:10180000084100082C0000200148006870470000D3
:101810002C00002000B5FFF7F7FF05498968054A4D
:10182000C1F30221515C01F01F01C84000BD00005E
:10183000001002404841000800B5FFF7E5FF0549E8
:101840008968054AC1F3C221515C01F01F01C840FB
:1018500000BD0000001002404841000830B40022E2
:1018600000202B4B996801F00C01D3F80CC00CF050
:10187000030C284C6510002909D00C2902D1BCF1B9
:10188000010F04D0042916D0082916D016E01A68D2
:1018900012F0080F08D01A68C2F30312DFF878C0FC
:1018A0005CF8222029B109E0D3F89420C2F3032286
:1018B000F4E7104602E0204600E028460C2917D144
:1018C000D86800F00301D868C0F30210401C022958
:1018D00010D0032915D0B2FBF0F0D968C1F306216E
:1018E0004843D968C1F34161491C4900B0FBF1F09C
:1018F00030BC7047B4FBF0F0D968C1F3062148430F
:10190000EFE7B5FBF0F0D968C1F306214843E8E7FB
:10191000001002400024F400184100082DE9F843AB
:101920000446002C0ED0FC4EB06800F00C05F068A8
:1019300000F00307207810F0100F71D0B5B10C2D16
:1019400003D004E00120BDE8F883012F0ED0A06988
:1019500000286FD0306840F001003060FFF78EFA49
:101960008046306810F0020F5BD068E0306810F0FD
:10197000020F01D0A06940B1206A316811F0080F50
:1019800006D0316801F0F00107E00120BDE8F883DE
:10199000D6F8941001F470610909884217D901F052
:1019A00047FB10B10120BDE8F883306840F0080023
:1019B00030603068216A20F0F000084330607068C1
:1019C000E16920F47F4040EA0120706017E0306850
:1019D00040F0080030603068216A20F0F0000843D1
:1019E00030607068E16920F47F4040EA0120706057
:1019F000206A01F01DFB10B10120BDE8F883FFF75C
:101A00002DFFB168C1F30312C449895C01F01F01C5
:101A1000C840C34908600020FFF7DEFB0028ECD176
:101A200037E0FFF72BFAA0EB0800022803D90320C8
:101A3000BDE8F88315E0306810F0020FF1D030688F
:101A400040F0080030603068216A20F0F000084360
:101A500030607068E16920F47F4040EA01207060E6
:101A600017E0306820F001003060FFF707FA804689
:101A7000306810F0020F0CD0FFF700FAA0EB08005E
:101A8000022802D90320BDE8F883306810F0020F65
:101A9000F2D1207810F0010F58D0082D1CD00C2D59
:101AA00001D1032F18D06068B0F5803F1DD0B0F58C
:101AB000A02F1FD0306820F480303060306820F4D0
:101AC00080203060606860B3FFF7D8F980463068E6
:101AD00010F4003F17D039E0306810F4003F35D0E3
:101AE000606870BB0120BDE8F883306840F4803046
:101AF0003060E7E7306840F480203060306840F4C0
:101B000080303060DEE7FFF7B9F9A0EB0800642809
:101B100002D90320BDE8F883306810F4003FF2D00A
:101B200014E0FFF7ABF98046306810F4003F0DD0A9
:101B3000FFF7A4F9A0EB0800642803D90320BDE84F
:101B4000F88303E0306810F4003FF1D1207810F002
:101B5000020F50D0042D11D00C2D01D1022F0DD029
:101B6000E06880B3306840F480703060FFF786F939
:101B70000746306810F4806F11D01CE0306810F414
:101B8000806F01D0E06838B17068217C20F0F85097
:101B900040EA016070602EE00120BDE8F883FFF7A5
:101BA0006DF9C01B022802D90320BDE8F883306814
:101BB00010F4806FF3D07068217C20F0F85040EA78
:101BC0000160706017E0FFE7306820F480703060DB
:101BD000FFF754F90746306810F4806F0BD0FFF719
:101BE0004DF9C01B022802D90320BDE8F8833068F4
:101BF00010F4806FF3D1207810F0080F38D06069AE
:101C0000D8B1D6F8940040F00100C6F89400FFF770
:101C100035F90746D6F8940010F0020F28D1FFF7E7
:101C20002DF9C01B022802D90320BDE8F883D6F89D
:101C3000940010F0020FF2D01AE0D6F8940020F0D1
:101C40000100C6F89400FFF719F90746D6F894008A
:101C500010F0020F0CD0FFF711F9C01B022802D9B7
:101C60000320BDE8F883D6F8940010F0020FF2D1FB
:101C7000207810F0040F73D04FF00008B06D10F012
:101C8000805F09D1B06D40F08050B065B06D00F05C
:101C9000805000904FF00108DFF88890D9F80000DC
:101CA00010F4807F1AD1D9F8000040F48070C9F890
:101CB0000000FFF7E3F80746D9F8000010F4807F32
:101CC0000CD1FFF7DBF8C01B022802D90320BDE8C6
:101CD000F883D9F8000010F4807FF2D0A0680128C2
:101CE00022D0052827D0D6F8900020F00100C6F8B1
:101CF0009000D6F8900020F00400C6F89000A0688C
:101D000041F2883968B3FFF7B9F80746D6F8900072
:101D100010F0020F1CD040E0001002400841000803
:101D20002C00002000700040D6F8900040F0010028
:101D3000C6F89000E3E7D6F8900040F00400C6F83B
:101D40009000D6F8900040F00100C6F89000D6E769
:101D5000FFF794F8C01B484504D90320BDE8F88379
:101D600022E005E0D6F8900010F0020FF0D014E069
:101D7000FFF784F80746D6F8900010F0020F0CD059
:101D8000FFF77CF8C01B484502D90320BDE8F88363
:101D9000D6F8900010F0020FF2D1B8F1010F03D184
:101DA000B06D20F08050B065207810F0200F38D052
:101DB000606AD8B1D6F8980040F00100C6F89800E3
:101DC000FFF75CF80746D6F8980010F0020F28D10C
:101DD000FFF754F8C01B022802D90320BDE8F8839E
:101DE000D6F8980010F0020FF2D01AE0D6F898005A
:101DF00020F00100C6F89800FFF740F80746D6F833
:101E0000980010F0020F0CD0FFF738F8C01B022822
:101E100002D90320BDE8F883D6F8980010F0020F2D
:101E2000F2D1A06AF0B30C2D7AD0022808D0306825
:101E300020F080703060306810F0006F4FD052E0BA
:101E4000306820F080703060FFF718F80546306881
:101E500010F0007F0BD0FFF711F8401B022802D9C9
:101E60000320BDE8F883306810F0007FF3D1216BC8
:101E7000E06A491E40EA0111606BA38F02024FF035
:101E8000FF3000EB530342EA4352114394F84020E1
:101E900000EB520041EA406094F8381040EAC1601B
:101EA000F06000E039E0306840F080703060F06849
:101EB00040F08070F060FEF7E1FF0446306810F0FB
:101EC000007F2AD1FEF7DAFF001B022802D9032087
:101ED000BDE8F883306810F0007FF3D01DE0F068B3
:101EE00020F00300F060F06820F4881020F080708B
:101EF000F060FEF7C3FF0446306810F0007F0CD09E
:101F0000FEF7BCFF001B022803D90320BDE8F883BD
:101F100006E0306810F0007FF2D10020BDE8F883C1
:101F20000120BDE8F88370477047000010B50446F3
:101F300015494FF4802008602168886810F4805F9C
:101F40000CD0C86810F4807F08D0C86800F080000A
:101F500060F4C070C8602046FFF7E6FF216888681B
:101F600010F4005F0CD0C86810F4007F08D0C86877
:101F700000F0800060F42070C8602046FFF7D3FFB7
:101F8000012084F8210010BD140401402DE9F04126
:101F900004460125002C5CD0002594F8210028B9C6
:101FA000002084F82000204600F056F8022084F833
:101FB00021002168CA2048622168532048622046D7
:101FC00001F093F80427FF2628B12068466284F8C0
:101FD000217001253DE02068816821F0400121F455
:101FE000E0018160206881686268A3691143226909
:101FF0001A43114381602168E06808612068016923
:10200000228941EA024101612068C16821F0800112
:10201000C1602068806810F0200F08D1204600F0D1
:1020200037FA20B12068466284F82170012585B90D
:102030002068C16C21F00301C1646169E06901435A
:102040002068C26C1143C16420684662012084F894
:1020500021002846BDE8F08110B500680949884292
:102060000FD1094850F8901F41F40041016000224F
:1020700011462920FFF714F9BDE810402920FFF789
:1020800003B910BD00280040001002402DE9F05FA8
:1020900004460B4694F82000012811D04FF0010AA5
:1020A00084F820A0022084F8210000275AB120687B
:1020B000806810F0400F28D0187801F001F825E072
:1020C000022000F0DFB82068806810F0400F00D1D7
:1020D000DF70187800F0FDFF0204587800F0F9FF77
:1020E00042EA0022987800F0F4FFD978104340EAE1
:1020F000815293F8200000F0ECFFD96942EA0060B9
:102100000843596940EA01051AE0DF70D8690028E0
:102110003DD093F8200000F0D3FF98781978DA7852
:1021200040EA01405978090241EA8251084393F894
:10213000201040EA0160D9690843596940EA010565
:102140009969586840EA01062168CA2048622168F6
:1021500053204862586A4FF0FF094FF0030BB0F567
:10216000807F19D02068816821F400718160206827
:10217000C16801F0800161F42071C160FEF77EFE4C
:1021800080462068C06810F0020F3ED053E093F8FC
:10219000200000F095FFC0E72068816821F480717D
:1021A00081602068C16801F0800161F4C071C16084
:1021B000FEF764FE80462068C06810F0010F15D15C
:1021C000FEF75CFEA0EB0800B0F57A7F09D9206825
:1021D000C0F8249084F821B084F82070032000F027
:1021E00051B82068C06810F0010FE9D02068C561BF
:1021F000206846642068816841F4807181602068AD
:10220000816841F48051816023E0FEF737FEA0EB46
:102210000800B0F57A7F09D92068C0F8249084F8C6
:1022200021B084F82070032000F02CB82068C0682A
:1022300010F0020FE9D020680562206886642068EB
:10224000816841F4007181602068816841F4005127
:1022500081600A48016841F48021016008480168F2
:1022600041F4802101602068C0F8249084F821A006
:1022700084F82070002000F005B800000004014040
:102280000804014030BCBDE8C09F2DE9F04704467A
:102290000B4694F82000012807D0012684F820601E
:1022A000022084F821001AB10AE00220BDE8F0877C
:1022B000587810F0100F03D000F0EF000A3058707B
:1022C0001AB39878D9781A7840EA01405978090207
:1022D00041EA423140EA01052168CA20486221688A
:1022E00053204862204600F000FF00274FF0FF080F
:1022F0004FF00409D0B12068C0F8248084F8219000
:1023000084F820700120BDE8F087D87800F0E1FE65
:102310000204587800F0DDFE42EA0022987800F0CE
:10232000D8FE1978104340EA4135D5E7216825F0F9
:10233000C00020F07F4048602068C16821F0800123
:10234000C1602068806810F0200F0DD1204600F099
:102350009FF848B12068C0F8248084F8219084F860
:1023600020700120BDE8F0872068C0F8248084F840
:10237000216084F820700020BDE8F0872DE9F04747
:1023800004460D46924694F8200001281DD04FF0D7
:10239000010884F82080022084F821002168CA20E6
:1023A0004862216853204862204600F09EFEFF27C5
:1023B0004FF00409002658B12068476284F8219044
:1023C00084F820600120BDE8F0870220BDE8F08796
:1023D000BAF1000F08D02068806810F0400F1AD0C2
:1023E000287800F06DFE17E02068806810F0400F3C
:1023F00000D1EE70287800F06CFE0204687800F0DE
:1024000068FE42EA0022A87800F063FEE9781043F3
:1024100040EA81500AE0EE70A8782978EA7840EA2C
:1024200001406978090241EA82510843174908408E
:10243000216808602068816821F480218160296911
:10244000E868014320688268114381602068C168A0
:1024500021F08001C1602068806810F0200F0CD14D
:10246000204600F015F840B12068476284F82190BA
:1024700084F820600120BDE8F0872068476284F876
:10248000218084F820600020BDE8F0877F7F7F00F6
:1024900070B504462068C16821F0A001C160FEF754
:1024A000EDFC05462068C06810F0200F0CD1FEF747
:1024B000E5FC401BB0F57A7F01D9032070BD206890
:1024C000C06810F0200FF2D0002070BD4FF0E02166
:1024D000042804D0086920F00400086170470869E6
:1024E00040F004000861704770470000401EB0F1E2
:1024F000807F01D3012070474FF0E0214861044AFA
:10250000F0201070002088610720086100207047CB
:1025100023ED00E010B5FFF7E7FF10BD70477047EF
:10252000704710B50446002C03D094F83D0010B15C
:1025300007E0012010BD002084F83C00204600F098
:102540000DF8022084F83D00211D206800F0DAFE1D
:10255000012084F83D00002010BD000008B500688F
:102560000B49884212D10B48016E41F400310166DB
:10257000006E002200F40030009011461920FEF792
:102580008FFEBDE808401920FEF77EBE08BD0000A2
:1025900000440140001002400168CA6842F0010294
:1025A000CA600068826807490A40062A08D0826823
:1025B0001140B1F5803F03D0016841F00101016095
:1025C0000020704707000100704770B5044620687E
:1025D00001694FF0000511F0020F17D0C16811F02A
:1025E000020F13D0E91E0161012020772068806965
:1025F00010F0030F03D02046FFF7E6FF05E020466A
:1026000000F0ACF8204600F0AAF8257720680169B0
:1026100011F0040F18D0C16811F0040F14D06FF03E
:1026200004010161022020772068806910F4407F56
:1026300003D02046FFF7C8FF05E0204600F08EF8E3
:10264000204600F08CF825772068016911F0080F0A
:1026500018D0C16811F0080F14D06FF008010161A3
:10266000042020772068C06910F0030F03D02046B3
:10267000FFF7AAFF05E0204600F070F8204600F0C2
:102680006EF825772068016911F0100F18D0C16825
:1026900011F0100F14D06FF01001016108202077A5
:1026A0002068C06910F4407F03D02046FFF78CFFFC
:1026B00005E0204600F052F8204600F050F825775B
:1026C0002068016911F0010F09D0C16811F0010FF4
:1026D00005D06FF001010161204600F041F820684B
:1026E000016911F0800F09D0C16811F0800F05D089
:1026F0006FF0800101612046FFF711FF206801693A
:1027000011F4807F09D0C16811F0800F05D06FF4FB
:10271000807101612046FFF701FF2068016911F017
:10272000400F09D0C16811F0400F05D06FF0400193
:102730000161204600F015F82068016911F0200FB2
:102740000BD0C16811F0200F07D06FF0200101619C
:102750002046BDE87040FFF7E3BE70BD704770478C
:102760007047704710B50446002C03D094F87100F0
:1027700010B107E0012010BD002084F87000204651
:1027800000F028F8242084F871002068016821F006
:1027900001010160204600F08DFE012818D0606A1A
:1027A00010B1204600F0E8FD2068416821F4904116
:1027B00041602068816821F02A01816020680168F9
:1027C00041F0010101602046BDE8104000F040BE2C
:1027D000012010BDF0B50068134987B0884221D1AF
:1027E0001248816D41F400318165806D022500F44D
:1027F00000300590042000268DE8610003240720A6
:10280000CDE903404FF0904769463846FEF73CFA61
:10281000A803CDE90005CDE9026469460494384671
:10282000FEF732FA07B0F0BD00440040001002404D
:102830002DE9F84304460D4691461E4694F8710072
:10284000202802D00220BDE8F8831DB3B9F1000FA3
:1028500020D094F8700001281FD0012084F8700067
:1028600000276767212084F87100FEF707FB804688
:10287000A4F85090A4F85290B4F8520018B343460C
:10288000002280212046009600F0A2FF40B10320E4
:10289000BDE8F8830120BDE8F8830220BDE8F88395
:1028A000A068B0F5805F01D12069B8B1216815F842
:1028B000010B0885B4F85200401EA4F85200B4F889
:1028C00052000028DBD143460022402120460096DA
:1028D00000F07EFF48B10320BDE8F8832888216816
:1028E000C0F308000885AD1CE4E7202084F87100DF
:1028F00084F870700020BDE8F88310B5012000F066
:1029000029FCBDE810404FF4FA60FDF775BD70B5C5
:102910000D4600F00700402141EAC00000F01AFC1B
:102920000024285D00F013FC641C082CF9DB70BD4A
:102930000449487840F00400487040F0080000F076
:1029400009BC00000000002010B5022000F002FCCD
:10295000BDE810404FF4FA60FDF74EBD70B5334C42
:1029600008220021E070227104252170012801D97C
:10297000227000E025702E48026822F0807202600A
:10298000026842F0807202602A48026822F0010266
:102990000260026842F001020260416000BF00BFB5
:1029A00000BF3220FEF761F92079FDF73BFD4FF4BF
:1029B0007A70FEF75AF9302000F047FF41F2941682
:1029C0003046FDF719FD302000F03FFF3046FDF79F
:1029D00013FD302000F039FF3046FDF70DFD2020BB
:1029E00000F033FF6420FDF707FD207840F0200061
:1029F00000F0B0FB6570FFF79BFFFFF77EFF022042
:102A0000A070062000F0A6FB3046FDF7F5FC074954
:102A10000020491DFFF77BFF044901200D31FFF71E
:102A200076FFBDE87040FFF78FBF00000000002078
:102A3000FCED00E0001000E010B5044602E0641C6C
:102A400000F085FB20780028F9D110BD7FB5094D35
:102A50003CCD8DE83C00084AD278914201D3521E09
:102A6000D1B21DF821100844C0B240F0800000F03F
:102A700071FB7FBDF840000800000020FEE7016800
:102A80008A6912F0020F01D000228A62006881690F
:102A900011F0010F03D1816941F00101816170479B
:102AA0002DE9F04104460D4616462068816911F073
:102AB000100F3DD080694FF0000710F0200F4FF04D
:102AC00020080DD1B5F1FF3F05D0FEF7D7F9801BE7
:102AD000A84220D8FDB12068806910F0200FF1D005
:102AE00021681020C8612068C0F81C802046FFF7CC
:102AF000C6FF20684168104A11404160606C40F098
:102B00000400606484F8418084F8427084F8407066
:102B10000120BDE8F081606C40F02000606484F822
:102B2000418084F8427084F840700120BDE8F08153
:102B30000020BDE8F081000000E800FE70B4DDF880
:102B40000CC0006844684FF48065084EC1F3090169
:102B500005EA5C5541EA024135431943AC4341EA79
:102B60000C012143416070BC70470000FF63FF030C
:102B70002DE9F0410446069F884616461D4620680A
:102B8000806938EA000016D00020B04210D1B5F1BB
:102B9000FF3F05D0FEF772F9C01BA8420DD865B102
:102BA0002068806938EA000016D00020B042EED0DC
:102BB0000020BDE8F0810120E7E7606C40F02000D4
:102BC0006064202084F84100002084F8420084F8EA
:102BD00040000120BDE8F0810120E7E770B5044620
:102BE0000D4616462068806910F0200F12D132463B
:102BF00029462046FFF754FF08B1012070BDFEF7BB
:102C00003DF9801BA84207D835B12068806910F0D3
:102C1000200FECD0002070BD606C40F0200060649C
:102C2000202084F84100002084F8420084F840000D
:102C3000012070BD70B504460D46164620688069B7
:102C400010F0020F15D1324629462046FFF728FF23
:102C500008B1012070BDB5F1FF3F05D0FEF70EF9B8
:102C6000801BA84207D835B12068806910F0020F98
:102C7000E9D0002070BD606C40F02000606420202E
:102C800084F84100002084F8420084F840000120CC
:102C900070BD000030B5184887B016490024C0E95F
:102CA000001484600425C460C0E9044504764476B9
:102CB0000121C16180F820408462C46280F8304004
:102CC000446380F83840FDF729FE00B1FEE70B4869
:102CD00000900620CDE901047F200594CDE903058D
:102CE00069460548FDF700FC002800D0FEE707B064
:102CF00030BD0000000004503000002000018021A1
:102D0000F0B5224887B0C16C41F00401C164C16CC8
:102D100001F004010591C16C41F00101C164C16C75
:102D200001F001010591C16C41F00201C164C06C68
:102D30004FF4CE5500F002004FF09046059000226F
:102D400029463046FEF794F8114F002201213846FB
:102D5000FEF78EF800243320CDE9000469463046A2
:102D60000294FDF791FF00950125CDE901546946D4
:102D700030460394FDF788FF0095CDE9015469467C
:102D800038460394FDF780FF07B0F0BD0010024005
:102D900000040048114810B50F4901601049416016
:102DA00000210122C0E90212016141618161C1611A
:102DB0000162FEF7C1F800B1FEE700210748FEF707
:102DC00063F800B1FEE700210448FEF78AF8002806
:102DD00000D0FEE710BD0000005400409400002029
:102DE000D38D801030B5284891B026490024C0E921
:102DF00000147F218160FF21C0E9031444618461D4
:102E0000C461FFF7C3F800B1FEE78DF828408DF8E4
:102E100029408DF82A400D9401220AA91A480E94DF
:102E2000FFF7ACFA00B1FEE701258DF83C508DF8B4
:102E30003D508DF83E508DF83F402A460FA912486C
:102E4000FFF723FA00B1FEE78DF800408DF801404E
:102E500010208DF802000D480194CDE904404FF494
:102E6000807003940990069407948DF820500122F5
:102E700069460548FFF70AF9002800D0FEE711B0BF
:102E800030BD000000280040E0000020008080806D
:102E90000C4810B50A4901604FF4E131416000214E
:102EA00081600C22C160C0E904128161C1610162CC
:102EB0004162FFF757FC002800D0FEE710BD00007C
:102EC0000044004044010020FEE7704770470000C6
:102ED0002DE9F041054688460024544EF06810F074
:102EE000030F28680ED0F16801F00301814207D179
:102EF00030B1F0686968C0F30210401C884229D0E4
:102F0000012427E0012806D002280AD003280ED089
:102F10000124B4B11EE0316811F0020FF9D101248F
:102F2000F7E7316811F4806FF3D10124F1E73168DC
:102F300011F4003FEDD1316811F4802FE9D1012463
:102F4000E7E7F1686A6821F07301521E41EA021155
:102F50000843F060002C65D1306820F0806030605C
:102F6000FDF78CFF0746306810F0006F0AD0FDF7C0
:102F700085FFC01B022801D9032403E0306810F04C
:102F8000006FF4D1ECBBB8F1000F1ED04FF0FF3052
:102F9000B8F1010F26D0A9682A7D090200EB520082
:102FA00041EA4060316921F4FE4121F0C0610843EB
:102FB0003061306840F080603060FDF75FFF0746A9
:102FC000306810F0006F1DD027E0A868297B000250
:102FD00040EAC160316921F4FE4121F078410843A3
:102FE0003061E6E7A9682A8A090200EB520041EA4B
:102FF0004050316921F4FE4121F4C00108433061A1
:10300000D7E70FE0FDF73AFFC01B022801D90324E0
:1030100003E0306810F0006FF4D01CB93069A96982
:10302000084330612046BDE8F081000000100240F6
:10303000F8B5054600241D4EB06D10F0805F02D03B
:10304000FEF7AEF90DE0B06D40F08050B065B06DA8
:1030500000F080500090FEF7A3F9B16D21F080518F
:10306000B165B0F5007F04D0802D0AD94FF003047C
:103070000DE0802D0BD9A02D01D9022407E00124F9
:1030800005E001D1022402E0702D00D1012408489E
:10309000016821F0070121430160006800F007008A
:1030A000A04201D00120F8BD0020F8BD0010024070
:1030B000002002400148FEF739BF0000E000002078
:1030C000010901EB8101490000F00F000844C0B282
:1030D000704700210A2804D3491C0A38C0B20A28C4
:1030E000FAD2090740EA1160704770B504462068BB
:1030F000C16811F0400F17D14FF0FF31C160FDF7EB
:10310000BDFE05462068C06810F0400F0CD1FDF7E9
:10311000B5FE401BB0F57A7F01D9032070BD206851
:10312000C06810F0400FF2D0002070BD704770B53D
:1031300000F0F00200070C46050E42EA040000F021
:1031400084FB45EA0400BDE8704000F07EBB01212D
:10315000FFF7EDBF0021FFF7EABF10B5FEF724F837
:10316000BDE81040FFF7D6B9F0B5ABB0FEF720F9D7
:103170002D4850F8901F21F01801016001261C20F5
:103180001A96159060201D9017960024CDE91B64B7
:103190000225CDE91F560727CDE923752420259563
:1031A000CDE9216015A8FEF7B9FB00B1FEE70F20BD
:1031B00026900320CDE927042994042126A82A94E7
:1031C000FEF76AFA00B1FEE7184800900B94C006BB
:1031D0000994C41412901020CDE9026001960005F4
:1031E0001494CDE90650CDE904756846FEF7F0F871
:1031F00000B1FEE72046FEF799F800B1FEE7FEF7C2
:1032000003FB4FF47A71B0FBF1F0FFF76FF9042084
:10321000FFF75CF9FEF7D4F800221146501EFEF7C6
:103220003FF82BB0F0BD0000001002404240020009
:103230000E48016841F4700101600D48016841F0D9
:103240000101016000218160026822F4102222F055
:10325000A85202608214C260026822F480220260D6
:1032600081610449C00308607047000088ED00E0F8
:103270000010024008ED00E02DE9F041194C1A4D14
:10328000DFF8688020784FF480564FF0904708B1FF
:10329000287868B1002231463846FDF7E9FD002262
:1032A00001214046FDF7E4FD2078B0B12878A0B9AF
:1032B00031463846FDF7D8FD0D4C207830B9012253
:1032C00011464046FDF7D4FD01202070002108463C
:1032D000FFF7BCFB07A0FFF7AFFBBDE8F0410848D4
:1032E000FFF773B9180000201900002000040048FF
:1032F0002500002050617373776F72643F000000F7
:103300000401002030B40268184B984202D0B0F19A
:10331000804F05D122F07002D1F804C04CEA0202BD
:10332000DFF84CC0134C984206D0B0F1804F03D068
:10333000604501D0A04203D122F44072CD682A43F7
:103340004D6922F080022A4302608A68C2620A68DC
:103350008262984203D0604501D0A04201D1096940
:1033600001630121416130BC70470000002C014025
:10337000004001400044014090F8241011F0010F7A
:1033800006D001684A68836A22F400321A434A6010
:1033900090F8241011F0020F06D001684A68C36A41
:1033A00022F480321A434A6090F8241011F0040F7E
:1033B00006D001684A68036B22F480221A434A60EF
:1033C00090F8241011F0080F06D001684A68436B8A
:1033D00022F400421A434A6090F8241011F0100FB2
:1033E00006D001688A68836B22F480521A438A608F
:1033F00090F8241011F0200F06D001688A68C36B82
:1034000022F400521A438A6090F8241011F0400F01
:1034100011D001684A68036C22F480121A434A6092
:10342000016CB1F5801F06D101684A68436C22F433
:10343000C0021A434A6090F8241011F0800F06D0A1
:1034400001684A68806C22F400221043486070478B
:10345000F8B5044600266667FDF710FD07462068AC
:1034600000686FF07E4510F0080F0AD03B4600223E
:103470004FF400112046009500F0AAF908B103208E
:10348000F8BD2068006810F0040F0AD03B46002207
:103490004FF480012046009500F09AF908B103200E
:1034A000F8BD202084F8710084F8720084F8706000
:1034B0000020F8BD2DE9F04704461026002500271E
:1034C0000020BC4B2168D4F810C0A268D4F81C803E
:1034D00042EA0C02D4F814C04CEA080C42EA0C028E
:1034E000D1F800C0DFF8D0820CEA080C4CEA0202E6
:1034F0000A6021684A68D4F80CC022F4405242EABB
:103500000C024A60A16922689A4203D0D4F820C014
:103510004CEA0101D2F808C02CF4306C4CEA0101ED
:1035200091602268A549A2F1804CBCF59C3C15D065
:10353000A2F1804CBCF5884C24D09A423DD1D1F800
:10354000881011F4406131D0B1F5806F32D0B1F5FF
:10355000006F2DD0B1F5406F2FD12DE0D1F888103C
:1035600011F0030106D0012908D0022904D0032953
:1035700023D105E0012620E002261EE004261CE0FF
:1035800008261AE0D1F8881011F00C0106D00429A1
:1035900008D0082904D00C290FD105E000260CE042
:1035A00002260AE0042608E0082606E0002604E0D9
:1035B000022602E0042600E00826DFF804C24FF0ED
:1035C00000089A4260D196B1022E13D0042E13D077
:1035D000082E14D00127002855D0626802EB420162
:1035E000814202D8B0EB023F0CD90127DBE0FEF7A5
:1035F00011F9F0E76046EEE7FEF730F9EBE74FF43C
:103600000040E8E776B1022E1AD0042E22D0082E10
:103610002ED001276B49A5F54070884232D820682A
:10362000C560C0E0FEF7F6F86268010E03025008BC
:10363000181841EB08010023FCF7C4FD0546E9E733
:1036400061495008401848F100010023FCF7BAFD19
:103650000546DFE7FEF702F96268010E0302500833
:10366000181841EB08010023FCF7ACFD0546D1E733
:10367000500810F5000048F100010023FCF7A2FDFE
:103680000546C7E701278EE0E0694FF6EF79B0F510
:10369000004F08D0092E7DD2DFE806F04D57617C3F
:1036A000687C7C7C7300092E35D2DFE806F0050FBC
:1036B0001934213434342B00FEF7ACF84100606833
:1036C00001EB5001B1FBF0F085B225E0FEF7B4F854
:1036D0004100606801EB5001B1FBF0F085B21BE0E6
:1036E0003A49606801EB5001B1FBF0F085B213E09C
:1036F000FEF7B4F84100606801EB5001B1FBF0F057
:1037000085B209E060684FF4803101EB5001B1FBF4
:10371000F0F085B200E00127A5F11000484508D877
:103720004FF6F0702840C5F3420108432168C86095
:1037300039E0012737E0FEF76DF80146606801EBDC
:103740005001B1FBF0F085B225E0FEF775F80146B7
:10375000606801EB5001B1FBF0F085B21BE06168DD
:103760000CEB5100B0FBF1F085B214E0FEF776F8F7
:103770000146606801EB5001B1FBF0F085B20AE050
:1037800008E060684FF4004101EB5001B1FBF0F03C
:1037900085B200E00127A5F11000484502D8206855
:1037A000C56000E00127C4F86080C4F86480384632
:1037B000BDE8F08700800040F369FFEF0010024091
:1037C0000024F400FFFC0F00000024F40048E8018E
:1037D0002DE9F0410446069D884617461E4620689E
:1037E000C06938EA000020D00020B84227D1B5F1E6
:1037F000FF3F1CD025B1FDF741FB801BA84216D925
:103800002068016821F4D07101602068816821F08E
:1038100001018160202084F8710084F8720000208A
:1038200084F870000320BDE8F0810120DDE7206806
:10383000C06938EA000005D00020B842D7D0002087
:10384000BDE8F0810120F8E7FEE710B50446FCF77B
:10385000E9FD44F00400FCF7E5FD1420FCF7CCFD85
:1038600024F00400FCF7DEFDBDE810401420FCF756
:10387000C3BD00000FB4084B10B504A902AA0398F9
:1038800000F01CF8044602A9002000F0F6F82046DB
:1038900010BC5DF814FB00007B3A000802E008C889
:1038A000121F08C1002AFAD170477047002001E0BA
:1038B00001C1121F002AFBD1704700002DE9FF4F04
:1038C0008BB09A460F460546002606E025280BD009
:1038D00052460D9990476D1C761C28780028F5D12A
:1038E0000FB0304600F0C6B80024A046012260495F
:1038F00000E0044315F8013F203B02FA03F00842C0
:10390000F7D128782E2817D115F8010F44F00404B8
:103910002A280ED06FF02F022878A0F13001092953
:103920000AD808EB880102EB410100EB01086D1C8D
:10393000F2E757F8048B6D1C287869283ED006DC26
:103940000028CDD063280BD0642804D136E073283A
:1039500010D075284BD052460D999047761C85E0C3
:1039600017F8040B8DF8000000208DF80100E946DF
:10397000012003E057F8049B4FF0FF3061074FF040
:10398000000401D40AE0641C44450DDA8442FADBE9
:1039900019F804100029F6D106E0641C8442FCDB0F
:1039A00019F804100029F8D1264404E019F8010B95
:1039B00052460D999047641EF8D257E001CF4FF060
:1039C0000A0B002802DA40422D2102E0210504D52D
:1039D0002B218DF82410012103E0E10705D02021DF
:1039E000F7E70DF1200908910CE00021F9E701CF7C
:1039F0004FF00A0BF9E75946FCF726FC01F13002BB
:103A000009F8012D0028F6D1ADEB090000F1200BDB
:103A1000600701D44FF00108D84502DDA8EB0B0088
:103A200000E000208046002406E009A85246005D20
:103A30000D999047641C761C08988442F5DB04E0DD
:103A4000302052460D999047761CB8F10001A8F13C
:103A50000108F5DC05E019F8010B52460D99904775
:103A6000761CBBF10001ABF1010BF4DC6D1C34E7FB
:103A70000928010030BCBDE8C08F0A68531C0B60E8
:103A8000107070472DE9F0474FF400674FF09046F3
:103A9000002239463046FDF7EBF94FF480780122D9
:103AA00041463046FDF7E4F9012240213046FDF75A
:103AB000DFF9012280213046FDF7DAF91021304686
:103AC000FDF7CBF9FE4CFF4D4FF47A79D0B91021B8
:103AD0003046FDF7C2F90028F9D03122A2706068A3
:103AE000F9A12844FFF7C6FE6068F549401C6060F4
:103AF000F4484B460122891C7838FEF799FEFA20DB
:103B0000FDF7B3F820213046FDF7A7F9D0B9202101
:103B10003046FDF7A2F90028F9D03422A27060687F
:103B2000E9A12844FFF7A6FE6068E549401C6060F3
:103B3000E4484B460122891C7838FEF779FEFA20CA
:103B4000FDF793F802213046FDF787F9D0B902213D
:103B50003046FDF782F90028F9D03722A27060685C
:103B6000D9A12844FFF786FE6068D549401C6060F3
:103B7000D4484B460122891C7838FEF759FEFA20BA
:103B8000FDF773F801213046FDF767F9D0B901213F
:103B90003046FDF762F90028F9D03022A270606843
:103BA000C9A12844FFF766FE6068C549401C6060F3
:103BB000C4484B460122891C7838FEF739FEFA20AA
:103BC000FDF753F8012239463046FDF751F900223E
:103BD00041463046FDF74CF9012240213046FDF7C1
:103BE00047F9012280213046FDF742F91021304685
:103BF000FDF733F9D0B910213046FDF72EF9002832
:103C0000F9D03222A2706068AFA12844FFF732FEDB
:103C10006068AB49401C6060AA484B460122891C81
:103C20007838FEF705FEFA20FDF71FF82021304610
:103C3000FDF713F9D0B920213046FDF70EF9002821
:103C4000F9D03522A27060689FA12844FFF712FEC8
:103C500060689B49401C60609A484B460122891C61
:103C60007838FEF7E5FDFA20FCF7FFFF0221304629
:103C7000FDF7F3F8D0B902213046FDF7EEF8002841
:103C8000F9D03822A27060688FA12844FFF7F2FDB6
:103C900060688B49401C60608A484B460122891C41
:103CA0007838FEF7C5FDFA20FCF7DFFF012130462A
:103CB000FDF7D3F8D0B901213046FDF7CEF8002842
:103CC000F9D04622A27060687FA12844FFF7D2FD98
:103CD00060687B49401C60607A484B460122891C21
:103CE0007838FEF7A5FDFA20FCF7BFFF0122394620
:103CF0003046FDF7BDF8012241463046FDF7B8F8E1
:103D0000002240213046FDF7B3F8012280213046E1
:103D1000FDF7AEF810213046FDF79FF8D0B910211D
:103D20003046FDF79AF80028F9D03322A270606877
:103D300065A12844FFF79EFD60686149401C6060F2
:103D400060484B460122891C7838FEF771FDFA2045
:103D5000FCF78BFF20213046FDF77FF8D0B92021FA
:103D60003046FDF77AF80028F9D03622A270606854
:103D700055A12844FFF77EFD60685149401C6060F2
:103D800050484B460122891C7838FEF751FDFA2035
:103D9000FCF76BFF02213046FDF75FF8D0B9022136
:103DA0003046FDF75AF80028F9D03922A270606831
:103DB00045A12844FFF75EFD60684149401C6060F2
:103DC00040484B460122891C7838FEF731FDFA2025
:103DD000FCF74BFF01213046FDF73FF8D0B9012138
:103DE0003046FDF73AF80028F9D04522A270606805
:103DF00035A12844FFF73EFD60683149401C6060F2
:103E000030484B460122891C7838FEF711FDFA2014
:103E1000FCF72BFF012239463046FDF729F8012235
:103E200041463046FDF724F8012240213046FDF797
:103E30001FF8002280213046FDF71AF81021304685
:103E4000FDF70BF8D0B910213046FDF706F8002831
:103E5000F9D04122A27060681BA12844FFF70AFD37
:103E600060681749401C606016484B460122891C57
:103E70007838FEF7DDFCFA20FCF7F7FE202130460B
:103E8000FCF7EBFFD0B920213046FCF7E6FF002815
:103E9000F9D04222A27060680BA12844FFF7EAFC27
:103EA00060680749401C606006484B460122891C37
:103EB0007838FEF7BDFCFA20FCF7D7FE022105E0BA
:103EC00018000020BC010020256300003046FCF7EC
:103ED000C4FFC8B902213046FCF7BFFF0028F9D063
:103EE0004322A27060682844AFF22401FFF7C2FCAD
:103EF00060684B46401C6060012234493448FEF73C
:103F000097FCFA20FCF7B1FE01213046FCF7A5FF33
:103F1000C8B901213046FCF7A0FF0028F9D044229F
:103F2000A27060682844AFF26001FFF7A3FC6068EC
:103F30004B46401C6060012224492548FEF778FC6E
:103F4000FA20FCF792FE61680026042928DC012192
:103F50000020FEF77BFD1E487830FEF76DFD60689F
:103F6000042807D119491A48891D7830FCF75EF9F1
:103F700010B16670BDE8F08701206070FEF7BDFCEF
:103F800000210846FEF762FD12A0FEF755FD012153
:103F90000820FEF75BFDBDE8F04710A0FEF74CBD22
:103FA0000020202201E02A54401C8842FBDB66608E
:103FB000FEF7A3FC6068A2782844AFF2F401FFF793
:103FC00059FC6068401C6060D4E700001A000020C3
:103FD0004401002041636365737300004772616EA2
:103FE0007465640088B03CA205AB07CA83E807008B
:103FF000FDF7E2F8FFF7B8F8FEF782FEFEF748FF9C
:10400000FEF7F0FEFEF7C6FEFEF744FE36483549E1
:104010000024016041F61F41C0E9011441F28731DB
:10402000C0E9031444618461FEF77BFA00B1FEE746
:104030000220FEF793FCFEF760FC2B487F21D4386A
:10404000FCF704FA2848FEF7A7FA2748D438FCF70B
:1040500061FC85B2C5F580504FF6FF7191FBF0F021
:10406000DFF8889086B24DF2D86A4FF0010B4FF41A
:104070007A781D48D438FCF7B0FD1B480121D438AC
:10408000FCF748FD1848D438FCF744FC401B70434B
:1040900087B2154843460A2205A94030FEF7C8FBFF
:1040A00001940294FFF7EEFC574502D989F800B05D
:1040B00001E089F800403A460DA101A8FFF7DAFBBC
:1040C00009484346042201A94030FEF7B1FB012014
:1040D000FCF7CBFDCDE700000D0A20416C61726D4D
:1040E00020000000004401400401002018000020CE
:1040F00025640D0A000000000000000040000000E0
:104100001400000054000000000000000000000047
:104110000102030406070809A0860100400D030000
:10412000801A060000350C0040420F0080841E00FB
:1041300000093D0000127A000024F40000366E01F0
:104140000048E801006CDC020000000001020304EA
:104150007041000800000020300000009C3800087A
:10416000A041000830000020A0050000AC38000885
:10417000000000000000191B060C1B130018180695
:10418000090809060000000000000000000000000F
:1041900031323334000000000000000000093D000F
:040000050800018D61
:00000001FF
