:020000040800F2
:10000000B007002035020008FF220008FB2000088E
:10001000FD22000841070008172900080000000021
:10002000000000000000000000000000AD240008F7
:10003000430700080000000001230008AF24000867
:100040004F0200084F0200084F0200084F0200084C
:100050004F0200084F0200084F0200084F0200083C
:100060004F0200084F0200084F0200084F0200082C
:100070004F0200084F0200084F0200084F0200081C
:100080004F0200084F0200084F0200084F0200080C
:100090004F0200084F0200084F0200084F020008FC
:1000A0004F0200084F0200084F0200084F020008EC
:1000B0004F02000800000000000000004F0200088E
:1000C0004F02000800000000000000004F0200087E
:1000D000000000004F0200084F020008000000006E
:1000E0004F0200084F02000800000000000000005E
:1000F0000000000000000000000000000000000000
:100100000000000000000000000000004F02000896
:1001100000000000000000004F0200084F0200082D
:100120004F0200084F0200084F0200084F0200086B
:100130004F02000800000000000000000000000066
:100140004F0200084F0200084F0200084F0200084B
:100150004F0200084F0200084F0200084F0200083B
:100160004F0200084F0200084F0200080000000084
:100170004F0200084F0200080000000000000000CD
:100180004F0200084F0200084F02000800F002F87A
:1001900000F041F80AA090E8000C82448344AAF1E0
:1001A0000107DA4501D100F036F8AFF2090EBAE8DE
:1001B0000F0013F0010F18BFFB1A43F0010318479B
:1001C000502C0000702C0000103A24BF78C878C171
:1001D000FAD8520724BF30C830C144BF04680C604D
:1001E000704700000023002400250026103A28BF95
:1001F00078C1FBD8520728BF30C148BF0B60704799
:10020000642900F0F780002070471FB502F0D6FD8A
:100210001FBD10B510BD00F0CAF91146FFF7F5FF7C
:1002200002F070FD00F0E8F903B4FFF7F2FF03BC41
:1002300000F0F0F90948804709480047FEE7FEE76B
:10024000FEE7FEE7FEE7FEE7FEE7FEE7FEE7FEE786
:1002500004480549054A064B70470000412500083F
:100260008D010008B0010020B0070020B00300207D
:10027000B003002053EA020C00F069802DE9F04B36
:100280004FF00006002B1FBFB3FA83F503FA05F405
:1002900024FA05F65E4012BF1643B2FA82F502FA5E
:1002A00005F4C5F120051EBF22FA05FC44EA0C0442
:1002B000203556EA044C4FEA144418BF641C4FF032
:1002C00000084FF00009904271EB030C39D300296C
:1002D00019BFB1FA81F701FA07F6B0FA80F700FA10
:1002E00007F6C7F120071EBF20FA07FC46EA0C06F6
:1002F0002037B6FBF4FCA7EB0507103F07F01F0BF8
:10030000CBF120060CFA0BFB2CFA06F644BFB346E1
:100310000026202FA4BF5E464FF0000B5BEA060CC0
:1003200008BF4FF0010B19EB0B09ABFB027C48EB4C
:100330000608C01B06FB02CC0BFB03CC71EB0C01C7
:10034000C1E70B46024641464846BDE8F08B13B56F
:100350004FF000004FF00001AFF30080BDE81C40FB
:10036000704700000FB41CB5074B06AA7B446946D2
:100370000090059800F003F90020694600F012F99A
:100380001CBC5DF814FB0000350200002DE9F041B3
:100390000E460446002020622046E168884730B3BC
:1003A000252805D0D4E901219047206A401CF2E7B6
:1003B000E168204600278847050018D0A5F14100D4
:1003C000192802D820354FF40067324629462046C6
:1003D0002760FFF715FF40B1012804D0F61D26F075
:1003E00007060836D8E7361DD6E72846DAE7206A3A
:1003F000BDE8F0812DE9F04106460024106875291A
:10040000314616A510D0AFF30080002802DA404232
:1004100013A507E031688A0701D512A502E0490754
:1004200004D511A5012401E0AFF3008000210A22C8
:1004300006F1240709E0B0FBF2FCB0FBF2F302FB8B
:100440001C00303078541846491C0028F3D123464C
:100450002A463046BDE8F04100F032B80000000006
:100460002D0000002B000000200000004FF00002D3
:1004700000B5134694469646203922BFA0E80C509A
:10048000A0E80C50B1F12001BFF4F7AF090728BF75
:10049000A0E80C5048BF0CC05DF804EB890028BFF1
:1004A00040F8042B08BF704748BF20F8022B11F01A
:1004B000804F18BF00F8012B704770477047704796
:1004C0002DE9F0470D4699469246044600F124086E
:1004D0000168880604D5E06921F01001216000E080
:1004E0000120A84201DD471B00E00027A1697A191D
:1004F00002EB0900081AA0612078C00602D4204649
:10050000AFF30080002608E0D4E901211AF80600C4
:100510009047206A401C761C20624E45F4DB207810
:10052000C0060AD52046AFF3008006E0D4E90121D9
:1005300030209047206A401C2062381EA7F1010736
:10054000F4DC07E0D4E9012118F805009047206A9F
:10055000401C2062281EA5F10105F3DC2046AFF304
:1005600000802078000602D50220BDE8F087012037
:10057000FBE7000001694A1C02610878704700B57A
:100580008FB0CDE901310021059105497944CDE9CC
:10059000031011466846FFF7F9FE0FB000BD0000DA
:1005A000E5FFFFFF0A6802F8010B0A607047754615
:1005B00000F02CF8AE4605006946534620F00700CF
:1005C000854618B020B5FFF743FEBDE820404FF048
:1005D00000064FF000074FF000084FF0000B21F02D
:1005E0000701AC46ACE8C009ACE8C009ACE8C009FA
:1005F000ACE8C0098D46704710B50446AFF30080E3
:100600002046BDE81040FFF70FBE000000487047CD
:100610005001002001491820ABBEFEE72600020071
:100620007047000070B50446006881688268C1F3B5
:10063000400112F0010F28D039BB816801F00D0193
:10064000012914D18168124A1140891C81602168F6
:100650000320086000F094FD054612E000F090FDD4
:10066000401B02280DD920688068C00709D0606D42
:1006700040F010006065A06D40F00100A065012011
:1006800070BD20688068C007E8D1002070BD000000
:10069000C0FFFF7FF8B50446002000902068816805
:1006A00011F0010F41D18168214A11422ED1816898
:1006B000D5432940491C81601E48806800F0E070E5
:1006C00000020DD51C481D490068B0FBF1F0401C2C
:1006D00000EB4000800000E0401E00900028FBD1AD
:1006E00000F04EFD06461BE0816811F0010F03D1BA
:1006F00081682940491C816000F042FD801B02286E
:100700000ED920680068C043C00709D0606D40F072
:1007100010006065A06D40F00100A0650120F8BDEB
:1007200020680168C943C907DED10020F8BD000078
:100730003F0000800003045010000020400D030023
:10074000FEE7704772B6FEE7F8B50026044600964D
:1007500090F850000D4601280BD0012084F850007D
:100760002046FFF75FFF0100606D04D040F01000ED
:100770002BE00220F8BD20F4885040F002006065B4
:1007800020688268134B1A4005F080431A4342F0F8
:10079000004282604FF4912320680EE0009A521CC0
:1007A00000929A4209D3606D20F0020040F01000E0
:1007B000606584F850600120F8BD8268D20FEDD1E9
:1007C000606D20F0020040F00100606584F8506028
:1007D0000846F8BDC0FFFF3F2DE9F84F002704464B
:1007E000009790F85000DFF8B0930D46B846012806
:1007F00011D0012684F85060206801F089FC60B1B6
:10080000606D40F0200060655FF0010784F8508063
:10081000384600F0D7B90220FBE769680C200529AB
:1008200012D8022907D0032907D0042907D00529A7
:1008300007D0062107E0686006E0122103E01821D6
:1008400001E04FF480716960D5E90021236800EA76
:1008500091101844036B01F01F014FF01F0C0CFAAC
:1008600001FCC2F3846223EA0C038A40134303634E
:10087000206801F04DFC8246206801F045FC5AEAF0
:1008800000001DD1AA682968206801F04DFC20688D
:100890006969C268C2F3C102520091402A69042A00
:1008A0000FD000EB82002B68026EDFF8F0C203F07D
:1008B000F84302EA0C020B431A4342F0004101667E
:1008C00072E0002101F01AFC400320684FF00001A3
:1008D00072D001F013FC90FAA0F0B0FA80F1286811
:1008E00042036ED090FAA0F0B0FA80F0814204D1B9
:1008F00000221146206801F026FC0121206801F049
:10090000FDFB400320684FF001015DD001F0F6FBD4
:1009100090FAA0F0B0FA80F12868420359D090FA1A
:10092000A0F0B0FA80F0814204D1002201212068B9
:1009300001F009FC0221206801F0E0FB400320687F
:100940004FF0020148D001F0D9FB90FAA0F0B0FAC4
:1009500080F12868420344D090FAA0F0B0FA80F009
:10096000814204D100220221206801F0ECFB032126
:10097000206801F0C3FB400320684FF0030133D02F
:1009800001F0BCFB90FAA0F0B0FA80F128684203B5
:100990002FD090FAA0F0B0FA80F0814204D100226A
:1009A0000321206801F0CFFB2068816811F0010F5E
:1009B00022D0ACE000E004E001F0A0FBC0F38461D1
:1009C0008DE7C0F3846091E701F098FBC0F3846188
:1009D000A2E7C0F38460A6E701F090FBC0F3846156
:1009E000B7E7C0F38460BBE701F088FBC0F3846124
:1009F000CCE7C0F38460D0E72A7B296850F8B03F89
:100A0000C1F3120C23EA0C0302F0180C644A22FA18
:100A10000CF20A4013430360E968494577D128681E
:100A200041031CD090FAA0F1B1FA81F1491C01F008
:100A30001F0109294FEA403132D8002912D000BFE6
:100A400090FAA0F1B1FA81F101F1010101F01F0169
:100A500006FA01F609D100BFC0F3846109E0C0F3D2
:100A60008461E3E7C0F38461EEE790FAA0F1B1FAA4
:100A700081F101F1010101F01F0146EA816102D11A
:100A8000C0F3846003E090FAA0F0B0FA80F000F1C7
:100A9000010000F01F0000EB400041EA005132E08D
:100AA00000290ED090FAA0F1B1FA81F101F1010113
:100AB00001F01F0106FA01F606D100BFC0F3846100
:100AC00006E0C0F38461F1E790FAA0F1B1FA81F198
:100AD00001F1010101F01F0146EA816102D1C0F379
:100AE000846003E090FAA0F0B0FA80F000F1010019
:100AF00000F01F002B4A00EB400002EB005041EADF
:100B0000000141F00071AA68206801F00DFB264841
:100B10002A6802423FF47AAE24488168244D254B6E
:100B200001F0E071AA421BD10D0219D422689A4249
:100B30007FF46CAE826841F4000122F0E0720A4357
:100B400082601D481D490068B0FBF1F0401C00EBBD
:100B50004000800000E0401E00900028FBD155E6D8
:100B6000174DAA4207D1CD0105D422689A42F6D189
:100B700041F080710AE06FF00045EA42EFD14A028D
:100B8000EDD422689A42EAD141F48001826822F0D1
:100B9000E0720A43826039E600007F4000F0FF0304
:100BA000FFFF0700000020FE000008800003045043
:100BB000000052C70000045010000020400D030048
:100BC000000084CB18BCBDE8E08F0068006C704763
:100BD000F8B54FF0000504002E46009502D0606D78
:100BE00010B107E00120F8BD204600F0C9F8A66565
:100BF00084F8506020688168C1F3407119B1816840
:100C0000574A1140816020688168C1F3007189B939
:100C10008168544A114041F08051816052485349E3
:100C20000068B0FBF1F04000801C00E0401E009026
:100C30000028FBD120688168C1F3007141B9616D62
:100C400041F010016165A16D41F00101A16501252F
:100C500001F05EFA616DC90600D430B1606D40F0FC
:100C60001000606501252846F8BD606D20F4807095
:100C700040F0020060652068806810F0010F0BD121
:100C80003B48806810F0010F06D13A4861688268DD
:100C900022F47C120A438260E168606B627E084342
:100CA000A16841EA4231084394F8201040EA01402B
:100CB000012904D1A18C304A02EB41410843A16AC9
:100CC00029B101F47071E26A014342EA010021682E
:100CD000CA682A4B1A400243CA60206801F018FA19
:100CE0000646206801F010FA304315D1207E94F8B2
:100CF0003010800340EA41002168CA6844F20203D0
:100D00009A430243CA6094F8380001280CD0206846
:100D1000016921F001010161206901282068016B4E
:100D200021F00F0111D013E0D4E90F010843D4E9F9
:100D300011121143084321680A6940F2FC739A4377
:100D4000104340F001000861E6E7E269521E1143DA
:100D50000163606D20F0020040F00100606582E7F1
:100D6000C0FFFF5FC0FFFF7F10000020400D0300A9
:100D700000000450000304500000FEFF07C0F0FF15
:100D800010B59CB00446142115A8FFF76FFB542141
:100D90006846FFF76BFB17492068884227D14FF45C
:100DA000804000904FF040501290684600F0ACFB3D
:100DB00008B1FFF7C7FC1048C16C41F40051C16491
:100DC000C16C01F400511A91C16C41F00101C16480
:100DD000C06C15A900F001001A90082015900B2096
:100DE0001690002017904FF0904000F0B5F81CB01E
:100DF00010BD000000000450001002402DE9F04139
:100E0000044640690E4608280AD02068C068C0071A
:100E100008D0606D40F0200060650120BDE8F081E1
:100E2000082500E0042500F0ABF9074614E0701C2B
:100E300012D000F0A5F9C01BB04200D866B92068F6
:100E40000068284208D1606D40F004006065002011
:100E500084F850000320E1E7206800682842E6D0CB
:100E6000606D40F400706065206801F055F980B154
:100E7000607E70B92068006800070AD5606D20F4B4
:100E800080706065606DC00403D4606D40F0010047
:100E900060652068C168082D05D0490401D40C2183
:100EA00001600020BAE70821FAE7000010B5044607
:100EB000006801F02DF910B10221084610BD94F828
:100EC000500001280CD0012084F850002046FFF784
:100ED000E1FB01004FF0000004D084F85000ECE783
:100EE000022010BD626D40F601639A4342F48072A5
:100EF0006265626DD20404D5A26D22F00602A2657D
:100F000000E0A06523681C221A6084F85000206865
:100F1000C268920105D5626D22F4005242F48052FB
:100F200062658268024B1A40121D8260C5E70000AC
:100F3000C0FFFF7F70B5044600F022F90546601C33
:100F400002D004480078044400F01AF9401BA04283
:100F5000FAD370BD040000202DE9F04FDFF8E091D6
:100F6000002301270326A9F1040B85B00F2509F101
:100F7000040AABF1040EDBE007FA03FC12EA0C02F0
:100F80007ED00C7904F00304012C01D0022C20D176
:100F9000846800945C0006FA04F80494009C24EA37
:100FA00008040094D1F80C80049C08FA04F8009C12
:100FB00048EA0408C0F80880446824EA0C0491F860
:100FC00004C0CCF3001C0CFA03FC4CEA040CC0F87F
:100FD00004C00C79E443A4070DD0D0F80CC04FEA4C
:100FE000430806FA08F42CEA040C8C6804FA08F4A6
:100FF00044EA0C04C4600C7904F00304022C19D1F7
:10100000DC0800EB84040294246A4FEA437C4FEA34
:10101000DC6CCDF810C005FA0CFC24EA0C04D1F805
:101020001080DDF810C008FA0CF848EA0408029CA9
:10103000C4F8208004684FEA430806FA08FC24EA52
:101040000C0491F804C00CF0030C0CFA08FC4CEAF8
:10105000040CC0F800C04C6814F4403F67D0394C11
:10106000D4F860C04CF0010CC4F860C0246E23F0CA
:10107000030C04F001040094334C6444029400E037
:1010800055E0A4684FEA837C4FEA1C7805FA08FC17
:1010900024EA0C04B0F1904F06D0DFF8B0C06045F0
:1010A00005D14FF0010C0BE04FF0000C08E0DFF829
:1010B000A0C0604502D14FF0020C01E04FF0070CD8
:1010C0000CFA08FC4CEA040C029CC4F808C0D9F8DD
:1010D0000040CC46D1F8048094435FEAC82800D58C
:1010E0001443CCF80040DAF80040D446D1F804802C
:1010F00094435FEA882800D51443CCF80040DBF81D
:101100000040DC46D1F8048094435FEA883800D57B
:101110001443CCF80040DEF80040F446D1F80480D7
:1011200094435FEAC83800D51443CCF800405B1CF8
:101130000C682246DC407FF41FAF05B000F00AB80F
:101140000804014000100240000001400004004873
:101150000008004830BCBDE8C08F0069084000D0DE
:1011600001207047426921EA02030A4043EA024132
:10117000816170470AB181617047816270470000E8
:1011800001488068704700000400002090F841206A
:10119000202A24D190F84020012A20D0012280F872
:1011A0004020242280F841200268136823F00103C4
:1011B00013600268136823F4805313600268136895
:1011C0000B43136001680A6842F001020A602021A3
:1011D00080F84110002180F8401008467047022036
:1011E000704790F84120202A22D190F84020012A0F
:1011F0001ED0012280F84020242280F8412002687D
:10120000136823F0010313600268136823F470630A
:1012100043EA0121116001680A6842F001020A6094
:10122000202180F84110002180F8401008467047C6
:101230000220704770B5040004D094F841000025E6
:1012400010B106E0012070BD84F84050204600F047
:101250004DF8242084F841002068016821F0010144
:1012600001606068216820F0706008612068816812
:1012700021F400418160E0680128A06807D040F4B3
:10128000044021688860E068022803D006E040F44A
:101290000040F6E721684FF400604860206841682C
:1012A000114A114341602068C16821F40041C160C6
:1012B000D4E904010843A16940EA01202168C8601B
:1012C000D4E907010843216808602068016841F0FB
:1012D000010101606564202084F84100256384F8E1
:1012E0004250002070BD00000080000230B59BB06D
:1012F0000446142115A8FFF7B9F854216846FFF7F2
:10130000B5F817492068884227D140200025009071
:101310000B95684600F0F8F808B1FFF713FA114C86
:10132000E06C40F00200E064E06C15A900F00200FF
:101330001A90C02015901220CDE9160503201890B0
:10134000042019900848FFF707FEA06D40F4001034
:10135000A065A06D00F400101A901BB030BD000015
:101360000054004000100240000400480248816818
:1013700002781144816070470400002010B50024F9
:10138000032000F063F8002000F008F808B1012401
:1013900001E000F025F8204610BD000070B50E4EAB
:1013A00005460024307898B14FF47A71B1FBF0F023
:1013B0000A490968B1FBF0F000F0B4FD40B9102D06
:1013C00006D200222946501E00F020F8756000E089
:1013D0000124204670BD0000040000201000002001
:1013E000094808B5016E41F001010166016E01F086
:1013F00001010091816D41F080518165806D00F0A7
:101400008050009008BD000000100240F0B40E4B68
:101410001B680C46C3F30223C3F10705042D00D952
:101420000425191D072901D2002300E0DB1E012637
:1014300006FA05F1491E214099409E40761E16404D
:101440003143F0BC01F068BA0CED00E0064900F051
:10145000070208684FF6FF03184040EA0220034ADB
:1014600010430860704700000CED00E00000FA0532
:101470001649B0F5007F0868C0F3412009D0022862
:1014800005D0086820F4C06040F480600860002047
:1014900070470128FBD0086820F4C06040F4007059
:1014A00008600B483222006850430A4AB0FBF2F051
:1014B000401C00E0401E4A69520501D50028F9D1C0
:1014C00048694005E3D503207047000000700040E4
:1014D0001000002040420F000248006800F4C06085
:1014E00070470000007000400248016841F48071BC
:1014F00001607047007000400248016841F004013B
:1015000001607047001002402DE9F84F04460027A3
:1015100000889C4D3E46000515D5E06B60B1B0F5E6
:10152000000F04D0B0F5400F2BD001270AE0E86887
:1015300040F48030E86024E00021201D00F0E2FE4D
:1015400007001ED03E462068800338D5A86D4FF0B6
:101550000008C00009D4A86D40F08050A865A86DAF
:101560004FF0010800F080500090DFF81CA2DAF87C
:10157000001041F48071CAF80010FFF701FE8146A7
:1015800010E0D5F88800E16B20F440000843C5F86E
:101590008800D8E7FFF7F4FDA0EB0900022801D985
:1015A000032704E0DAF80000C005F3D5EFB33E46A8
:1015B000B8F1000F03D0A86D20F08050A865207806
:1015C000C00707D0D5F88800216A20F0030008433F
:1015D000C5F888002078800707D5D5F88800616AAB
:1015E00020F00C000843C5F888002078800607D555
:1015F000D5F88800A16A20F440600843C5F8880047
:101600002088800507D5D5F88800616B20F440203C
:101610000843C5F888002088400509D5D5F888001A
:10162000A16B20F44010084300E02EE0C5F88800CC
:101630002078400607D5D5F88800E16A20F44050AC
:101640000843C5F888002088C00507D5D5F888006C
:10165000216B20F440300843C5F8880020884FF003
:10166000006780044FF080684ED5D5F88800216C63
:1016700020F040600843C5F88800206CB8423BD198
:10168000E86840F48010E8603EE0D5F8900010F47F
:10169000407014D0216D814211D0D5F89000D5F85A
:1016A000901020F4407041F48031C5F89010D5F8C6
:1016B000901021F48031C5F89010C5F89000C00753
:1016C00011D0FFF75DFD074641F2883907E000BF02
:1016D000FFF756FDC11B494501D9032668E7D5F838
:1016E00090008007F4D5D5F89000216D20F440706B
:1016F0000843C5F890005BE7404505D10121201D56
:1017000000F000FE00B106462068400317D5D5F86A
:101710008800616C20F040600843C5F88800606C68
:10172000B84204D1E86840F48010E86007E0404522
:1017300005D10121201D00F0E5FD00B106462088FD
:10174000400411D5D5F88800A16C20F04050084322
:10175000C5F88800A06CB0F1805F05D10221201D82
:1017600000F0D0FD00B106462088000406D555F8EB
:10177000880FE16C20F0804008432860304600F07C
:1017800005B80000001002400070004018BCBDE821
:10179000E08F00002DE9F0470F4605006BD0494E61
:1017A000306800F00700B84209D2306820F0070026
:1017B00038433060306800F00700B8425BD12878C9
:1017C000414C80070AD5A868A16801F0F001884261
:1017D00004D9A16821F0F0010143A1602878C00775
:1017E0002CD06868032811D0022812D0216898B143
:1017F000490500293FDAA16821F003010143A160F6
:10180000FFF7BEFC804641F2883910E0216889016B
:10181000EFE721688903ECE78907EAE7FFF7B0FC07
:10182000A0EB0801494502D90320BDE8F087A06874
:10183000696800F00C00B0EB810FEFD128788007C9
:101840000AD5A868A16801F0F001884204D2A16815
:1018500021F0F0010143A160306800F00700B842B8
:101860000BD9306820F0070038433060306800F052
:101870000700B84201D00120D7E72878400705D5F6
:10188000A068E96820F4E0600843A06028780007B9
:1018900006D5A068296920F4605040EAC100A06024
:1018A00000F03EF8A168094AC1F30311515C01F050
:1018B0001F01C8400649086006480068BDE8F047B7
:1018C000FFF76CBD0020024000100240C82D000848
:1018D00010000020080000200548064900688968BB
:1018E000054AC1F30221515C01F01F01C840704755
:1018F0001000002000100240082E0008054806498C
:1019000000688968054AC1F3C221515C01F01F01DA
:10191000C84070471000002000100240082E000848
:1019200070B52549002318468A68CC6812F00C026D
:1019300004F00306214C4FEA640509D00C2A05D0B7
:10194000042A32D0082A00D1284670BD012E10D1B9
:101950000B681B0704D4D1F89430C3F3032302E0CF
:101960000B68C3F30313164E56F82330DAB10C2A72
:10197000EBD1C86800F00300022818D0032818D063
:101980001846CA68CB68C2F30212C3F30623434366
:10199000521CB3FBF2F2C868C0F34160401C400027
:1019A000B2FBF0F070BD184670BD204670BD2046F9
:1019B000E7E72846E5E70000001002400024F400B5
:1019C000D82D00082DE9F84304006FD0FA4DA8681F
:1019D00000F00C06E86800F003072078C00664D524
:1019E00076B10C2E01D1012F0AD0A06900282868F9
:1019F0007AD040F001002860FFF7C2FB80465DE02E
:101A00002868800702D5A0690028DED0216A2868EE
:101A1000000703D5286800F0F00004E0D5F8940032
:101A2000F02202EA1010814216D9084600F000FDAB
:101A300000283BD1286840F0080028602868216A07
:101A400020F0F000084328606868E16920F47F40D6
:101A500040EA0120686016E0286840F0080028602D
:101A60002868216A20F0F000084328606868E1696E
:101A700020F47F4040EA0120686026B9206A00F027
:101A8000D7FC0028D5D1FFF74BFFA968CB4AC1F39B
:101A90000311515C01F01F01C840C9490860C948E1
:101AA0000068FFF77BFC00287ED12EE0CAE000BF73
:101AB000FFF766FBA0EB0800022876D828688007AD
:101AC000F6D5286840F0080028602868216A20F0D0
:101AD000F000084328606868E16920F47F4040EA2C
:101AE0000120686011E0FFE720F001002860FFF7A7
:101AF00047FB804606E000BFFFF742FBA0EB080073
:101B00000228DAD828688007F6D42078C00740D0A9
:101B1000082E18D00C2E01D1032F14D06068B0F518
:101B2000803F17D0B0F5A02F286817D020F4803060
:101B30002860286820F4802028606068E0B1FFF702
:101B40001FFB804614E02868800322D560680028C7
:101B500078D01EE0286840F48030EDE740F4802023
:101B60002860F7E7FFF70CFBA0EB08006428A4D877
:101B700028688003F6D50CE0FFF702FB804605E0FD
:101B8000FFF7FEFAA0EB0800642896D828688003C7
:101B9000F6D4207880073BD5042E11D00C2E01D12D
:101BA000022F0DD0E06801E0AAE1FFE000282868DC
:101BB0001ED040F480702860FFF7E2FA07460CE080
:101BC000286840050CD5E0680028C1D008E000BFB7
:101BD000FFF7D6FAC01B022893D828684005F7D52E
:101BE0006868217C20F0F85040EA016068600FE0EE
:101BF00020F480702860FFF7C3FA074605E000BFB5
:101C0000FFF7BEFAC01B0228B1D828684005F7D4F8
:101C10002078000729D560690028D5F8940012D0F3
:101C200040F00100C5F89400FFF7AAFA074604E067
:101C3000FFF7A6FAC01B022899D8D5F894008007B0
:101C4000F6D512E02BE120F00100C5F89400FFF773
:101C500097FA074605E000BFFFF792FAC01B02287B
:101C600085D8D5F894008007F6D42078400766D54B
:101C7000A86D0027C00008D4A86D40F08050A8656A
:101C8000A86D012700F0805000904F480168C905F9
:101C900012D40168814641F480710160FFF770FA47
:101CA000804605E0FFF76CFAA0EB080002287DD81B
:101CB000D9F80000C005F5D5A068012816D0052880
:101CC000D5F8900017D020F00100C5F89000D5F8A5
:101CD000900020F0040000BFC5F89000A06841F219
:101CE0008839C0B1FFF74CFA80460FE0D5F8900074
:101CF00040F00100F0E740F00400C5F89000F5E77F
:101D0000FFF73EFAA0EB080149454FD8D5F89000FF
:101D10008007F5D50EE0FFF733FA804606E000BFF6
:101D2000FFF72EFAA0EB080149453FD8D5F89000FF
:101D30008007F5D41FB1A86D20F08050A8652078E9
:101D4000800628D5606A0028D5F8980012D040F0A7
:101D50000100C5F89800FFF713FA074605E000BF39
:101D6000FFF70EFAC01B022820D8D5F8980080078C
:101D7000F6D510E020F00100C5F89800FFF700FA52
:101D8000074604E0FFF7FCF9C01B02280ED8D5F87F
:101D900098008007F6D4A06AF0B3022816D00C2E63
:101DA0007DD0286820F08070286000E0A7E0FFF771
:101DB000E7F90446A6E0000000100240C82D000824
:101DC000100000200800002000700040E868E26A6F
:101DD00000F00301914228D1216B00F0700209014B
:101DE0001039914221D1626B00F4FE41B1EB022F18
:101DF0001BD194F8382000F07841B1EBC26F14D1B8
:101E0000A18F00F4C00249084905A1F500119142D3
:101E10000BD194F8401000E06AE04908490600F050
:101E2000C060A1F1007181424BD00C2E73D02868A4
:101E3000400170D4286820F080702860FFF7A0F976
:101E4000064604E0FFF79CF9801B022857D8286853
:101E50008001F7D4F4E90B016FF00F0202EB0111DE
:101E60000843218A5204490802EB4151A26841EA21
:101E700002210843217D4FF07E42490802EB416177
:101E80000843217B40EAC160E968244A11400843C5
:101E9000E860286840F080702860E86800E03AE078
:101EA00040F08070E860FFF76BF9044605E000BF82
:101EB000FFF766F9001B022821D828688001F7D5B2
:101EC00027E02868800124D4286840F080702860CA
:101ED000E86840F08070E860FFF752F9044604E0DB
:101EE000FFF74EF9001B022809D828688001F7D5B2
:101EF0000FE000BFFFF744F9001B022802D90320BE
:101F0000BDE8F88328688001F4D4E86804490840F3
:101F1000E8600020F4E70120F2E700008C809D01DA
:101F2000FCFFEEFE10B5401EB0F1807F01D3012012
:101F300010BD4FF0E02460610F21601700F0ECFC51
:101F40000020A06107202061002010BD10B5040012
:101F500002D0A06F10B107E0012010BD002084F86E
:101F60007400204600F026F82420A067206801684D
:101F700021F001010160204600F07CFB0128ECD03B
:101F8000606A10B1204600F0E3FA2068416821F44D
:101F9000904141602068816821F02A0181602068B9
:101FA000016841F0010101602046BDE8104000F0E9
:101FB00033BB0000F0B59BB00446142115A8FEF712
:101FC00055FA54216846FEF751FA1C4920688842A8
:101FD00032D102240026684609960094FFF794FA4D
:101FE00008B1FEF7AFFB1648816D41F40031816501
:101FF000816D01F400311A91C16C41F00101C1649D
:10200000C06C15A900F001001A90042081E851006D
:1020100003250720CDE918504FF090473846FEF7CA
:102020009BFFCDE917654FF400401995CDE91504E4
:1020300015A93846FEF790FF1BB0F0BD00440040E4
:10204000001002402DE9F8430446806F1F461646F3
:102050000D4620284FD1CDB1C6B194F874000128A7
:1020600049D0012084F874004FF00008C4F8808043
:102070002120A067FFF784F8A4F850608146A4F8F7
:102080005260A068B0F5805F03D004E00120BDE895
:10209000F883206928B12E465FF0000584F874802B
:1020A00010E00026FAE78021204600F0D1FBB8B905
:1020B000C6B116F8010B21680885B4F85200401E1D
:1020C000A4F85200B4F852004B464FF000020097BB
:1020D0000028E8D14FF04001204600F0B9FB30B1B4
:1020E0000320D4E735F8020BC0F30800E3E7202013
:1020F000A0670020CBE70220C9E7FEE700EB8100E4
:10210000006E00F0F84070478068C0F3C000704770
:102110008068C0F380007047C06810F4406F01D041
:102120000020704701207047042303EAD15310B503
:1021300018444369C1F3045107248C40A3438A40E7
:102140001343436110BD00EB8100016E21F000419B
:10215000114301667047000030B587B0182168460A
:10216000FEF784F9184817490024C0E90014846078
:102170000425C460C0E90445047644760121C161A8
:1021800080F820408462C46280F83040446380F864
:102190003840FEF71DFD08B172B6FEE70B4800900F
:1021A0000620CDE901047F200594CDE903056946A9
:1021B0000548FEF711FB002801D072B6FEE707B014
:1021C00030BD0000000004501400002000018021F8
:1021D000F0B587B014216846FEF748F92248C16C73
:1021E00041F00401C164C16C01F004010591C16CAE
:1021F00041F00101C164C16C01F001010591C16CA4
:1022000041F00201C164C06C4FF0904600F0020042
:1022100005900022F2213046FEF7ACFF134F00225A
:1022200008213846FEF7A6FFF22000900125002481
:10223000CDE90154694630460394FEF78DFE4FF414
:102240007060CDE90004694630460294FEF784FED2
:1022500008200090CDE90154694638460394FEF702
:102260007BFE07B0F0BD00000010024000040048F3
:10227000124810B510490160114941600021012246
:10228000C0E90212016141618161C1610162FEF731
:10229000D1FF08B172B6FEE700210848FEF776FFCD
:1022A00008B172B6FEE700210448FEF79AFF002845
:1022B00001D072B6FEE710BD005400407800002047
:1022C000D38D80100C4810B50A4901604FF4E131FC
:1022D0004160002181600C22C160C0E9041281616B
:1022E000C16101624162FFF731FE002801D072B680
:1022F000FEE710BD00440040CC000020FEE7FEE7F2
:10230000704700002DE9F041444C05468846E068DE
:102310000026810728680DD0E16801F003018142A1
:1023200016D1A8B1E0686968C0F30210401C884269
:102330000ED120E0012804D0022805D0032807D1BF
:1023400008E02168890701E021684905002907DBC9
:1023500001265FE02168890302D421684903F5E77B
:10236000E1686A686FF00F0321F0730103EB02125A
:1023700011430143E160206820F080602060FEF797
:10238000FFFE074605E000BFFEF7FAFEC01B02286D
:1023900037D820680001F7D4B8F1000F18D0B8F191
:1023A000010F1DD0287D4FF07E41400801EB4060B9
:1023B000A96840EA01202169194A114008432061B7
:1023C000206840F080602060FEF7DAFE07461AE0E1
:1023D000A868297B000240EAC1602169114AECE744
:1023E000288A1149400801EB4050A96840EA0120C1
:1023F00021690E4AE1E700BFFEF7C2FEC01B0228BA
:1024000001D9032606E020680001F5D52069A969F5
:10241000084320613046BDE8F08100000010024012
:10242000FF80FFF9FF80FF070000E0FFFF809FFFB4
:10243000F8B51C4D06460024A86DC00002D5FFF774
:102440004BF80DE0A86D40F08050A865A86D00F035
:1024500080500090FFF740F8A96D21F08051A965E8
:10246000B0F5007F04D0802E07D94FF003040AE0B6
:10247000802E08D9A02E01D804E001D1022402E068
:10248000702E00D101240848016821F00701214382
:102490000160006800F00700A04201D00120F8BDF3
:1024A0000020F8BD00100240002002407047FEF7F7
:1024B0005DBF000010B596B044216846FDF7D6FF19
:1024C000142111A8FDF7D2FF4FF40070FEF7D0FFE2
:1024D00008B172B6FEE7FFF707F8184850F8901FEA
:1024E00021F01801016014200090012002900024C6
:1024F00060210690CDE907410221CDE90A100C9038
:1025000024200D900720CDE90E0168461091FFF7B9
:1025100059FA08B172B6FEE70F2011900320CDE9F9
:1025200012041494042111A81594FFF733F908B18B
:1025300072B6FEE7FEF7E0FF16B010BD00100240D5
:102540000248016841F470010160704788ED00E0C5
:1025500090F82410C90706D001684A68836A22F4FB
:1025600000321A434A6090F82410890706D50168A2
:102570004A68C36A22F480321A434A6090F82410F1
:10258000490706D501684A68036B22F480221A4382
:102590004A6090F82410090706D501684A68436B21
:1025A00022F400421A434A6090F82410C90606D566
:1025B00001688A68836B22F480521A438A6090F81B
:1025C0002410890606D501688A68C36B22F400527C
:1025D0001A438A6090F82410490611D501684A68A8
:1025E000036C22F480121A434A60016CB1F5801F1B
:1025F00006D101684A68436C22F4C0021A434A605B
:1026000090F82410090606D501684A68806C22F407
:10261000002202434A607047F8B500260446C0F81D
:102620008060FEF7ADFD0546206800686FF07E47CC
:10263000000708D52B4600224FF4001120460097D2
:1026400000F006F960B92068006840070AD52B46FB
:1026500000224FF480012046009700F0F9F808B1FD
:102660000320F8BD2020A067E067266684F8746028
:102670000020F8BD2DE9F041044601688068226918
:10268000E66910436269002532431043694B0A68CA
:10269000694E324002430A6020684168E26821F4D2
:1026A0004051114341602168A069994201D0226ADA
:1026B00010438A6822F4306202438A605F492768C7
:1026C0005F488F420DD1D0F8880010F0030006D08B
:1026D000012838D0022834D0032821D135E0012147
:1026E0001FE058498F420BD1D0F8880010F00C0041
:1026F00025D0042827D0082823D00C2810D124E086
:102700009F420DD1D0F8880010F4406017D0B0F58A
:10271000806F18D0B0F5006F13D0B0F5406F14D0B3
:102720001021494A00264FF400409F422FD171B139
:1027300002290FD004290FD0082973D10FE00021FE
:10274000EFE70221EDE70421EBE70821E9E7FFF7D6
:10275000C3F803E0104602E0FFF7E2F8F0B3626866
:1027600002EB420181425DD8B0EB023F5AD8010E24
:1027700003025008181871410023FDF77BFD334A0E
:10278000A0F5407191424DD82168C8604BE0E369E3
:102790004FF6EF77834228D1092943D2DFE801F0D1
:1027A00005080B420D4242421000FFF795F806E083
:1027B000FFF7A4F803E0104602E0FFF7B1F868B1B4
:1027C0004100606801EB5001B1FBF0F0A0F1100195
:1027D000B94227D84FF6F071014000E023E0C0F382
:1027E000420001432068C1601DE009291AD2DFE8D8
:1027F00001F005080B190D1919191000FFF76CF8F5
:1028000006E0FFF77BF803E0104602E0FFF788F8E8
:1028100048B1616800EB5100B0FBF1F0A0F110018C
:10282000B94205D9012566662846A666BDE8F0814D
:1028300080B2A9E700800040F369FFEF0038014053
:1028400000100240004400400024F400FFFC0F0090
:102850002DE9F0479A4617460E4604464FF0000908
:102860004FF02008089D4AE0681C48D0FEF788FC1D
:10287000A0EB0A00A8422AD84DB320680168490796
:102880003DD5C069C043000539D421684FF40060CC
:102890000862206850E8001F21F4D07140E800125F
:1028A000002AF6D12068083050E8001F21F001010D
:1028B00040E80012002AF5D1C4F87880C4F87C8082
:1028C000C4F8808084F874900320BDE8F087216804
:1028D00051E8000F20F4D07041E80002002AF6D140
:1028E0002068083050E8001F21F0010140E8001284
:1028F000002AF5D1C4F87880C4F87C80E2E720682B
:10290000C06936EA000004D00020B842ACD00020F4
:10291000DBE70120F9E7FEE70907090E002804DBE1
:1029200000F1E02080F80014704700F00F0000F183
:10293000E02080F8141D70472DE9F05F4FF09044BF
:10294000002202212046FEF715FC0122102120461C
:10295000FEF710FC012220212046FEF70BFC01228D
:1029600040212046FEF706FC4FF48077394620468A
:10297000FEF7F3FBDD4D4FF47A7B88B939462046EC
:10298000FEF7EBFB0028F9D03120D84968705B4690
:102990000122491CD648FFF755FBFA20FEF7CAFA78
:1029A0004FF4007631462046FEF7D7FB88B9314612
:1029B0002046FEF7D2FB0028F9D03420CB496870BE
:1029C0005B460122491CCA48FFF73CFBFA20FEF790
:1029D000B1FA4FF4806949462046FEF7BEFB88B93C
:1029E00049462046FEF7B9FB0028F9D03720BF49F9
:1029F00068705B460122491CBD48FFF723FBFA20A3
:102A0000FEF798FA4FF4006A51462046FEF7A5FB00
:102A100088B951462046FEF7A0FB0028F9D03020A7
:102A2000B24968705B460122491CB148FFF70AFBB6
:102A3000FA20FEF77FFA012202212046FEF79AFBD8
:102A4000002210212046FEF795FB0122202120467E
:102A5000FEF790FB012240212046FEF78BFB394612
:102A60002046FEF77AFB88B939462046FEF775FB0B
:102A70000028F9D032209D4968705B460122491C2C
:102A80009B48FFF7DFFAFA20FEF754FA314620465A
:102A9000FEF763FB88B931462046FEF75EFB00284F
:102AA000F9D03520914968705B460122491C904855
:102AB000FFF7C8FAFA20FEF73DFA49462046FEF72E
:102AC0004CFB88B949462046FEF747FB0028F9D061
:102AD0003820864968705B460122491C8448FFF70C
:102AE000B1FAFA20FEF726FA51462046FEF735FBEA
:102AF00088B951462046FEF730FB0028F9D0462021
:102B00007A4968705B460122491C7948FFF79AFAB6
:102B1000FA20FEF70FFA012202212046FEF72AFBD7
:102B2000012210212046FEF725FB0022202120460D
:102B3000FEF720FB012240212046FEF71BFBB84692
:102B400039462046FEF709FB90B9474639462046EC
:102B5000FEF703FB0028F9D03320644968705B4618
:102B60000122491C6248FFF76DFAFA20FEF7E2F9EC
:102B700031462046FEF7F1FA88B931462046FEF785
:102B8000ECFA0028F9D03620584968705B460122DB
:102B9000491C5748FFF756FAFA20FEF7CBF9494689
:102BA0002046FEF7DAFA90B94F4639462046FEF73E
:102BB000D4FA0028F9D039204C4968705B460122CC
:102BC000491C4B48FFF73EFAFA20FEF7B3F9574687
:102BD00051462046FEF7C1FA88B939462046FEF72D
:102BE000BCFA0028F9D04520404968705B460122B4
:102BF000491C3F48FFF726FAFA20FEF79BF901220D
:102C000002212046FEF7B6FA012210212046FEF7E7
:102C1000B1FA012220212046FEF7ACFA0022402121
:102C20002046FEF7A7FA41462046FEF796FA88B9F5
:102C300041462046FEF791FA0028F9D041202B4961
:102C400068705B460122491C2948FFF7FBF9FA200E
:102C5000FEF770F931462046FEF77FFA88B9314613
:102C60002046FEF77AFA0028F9D042201F49687002
:102C70005B460122491C1E48FFF7E4F9FA20FEF7E3
:102C800059F94E4649462046FEF767FA88B931465B
:102C90002046FEF762FA0028F9D0432013496870F5
:102CA0005B460122491C1248FFF7CCF9FA20FEF7D7
:102CB00041F939462046FEF750FA002813D139462B
:102CC0002046FEF74AFA0028F9D0442007496870E8
:102CD0005B460122491C0648FFF7B4F900F00AB828
:102CE000FA20FEF727B900F00AB800000000002023
:102CF000CC00002030BCBDE8C05FFFF7F1BF30BCA6
:102D0000BDE8C09F1CB5FEF739FBFFF7D3FBFFF70B
:102D10005FFAFFF7D7FAFFF71FFAFFF7A9FA7F214B
:102D20002348FDF711FD2248FEF7C0F80121204895
:102D3000FEF764F81E48FDF748FF85B2C5F58050E0
:102D40004FF6FF7191FBF0F01A4C87B24FF4FA780E
:102D50004FF0010900264FF0904A207820B9002258
:102D600080215046FEF706FA1148FEF79FF8012130
:102D70000F48FEF743F80E48FDF727FF401B784346
:102D800080B200960196404506D284F800908021DA
:102D90005046FEF7E7F900E02670227806A1684663
:102DA000FDF7E0FA6420FEF7C5F8FFF7C5FDD4E7AC
:102DB000140000200000002025640A004FF040703D
:102DC000E1EE100A70470000000000000000000063
:102DD0000102030406070809A0860100400D030054
:102DE000801A060000350C0040420F0080841E004F
:102DF00000093D0000127A000024F40000366E0144
:102E00000048E801006CDC0200000000010203043D
:102E1000302E00080000002014000000C801000847
:102E2000442E0008140000209C070000E401000864
:102E30000000000001000000100000000000000081
:042E400000093D0048
:040000050800018D61
:00000001FF
